S01300004752424C2D4C2D4D6567612E73726563CA
S113000092C20000A3C20000A1C200009FC200006F
S11300109DC200009BC2000099C2000097C200006C
S113002095C200000C94103091C200000C94E53984
S11300300C942D308BC2000089C2000087C20000DE
S113004085C200000C94ED1881C200007FC200003C
S11300507DC200007BC2000079C200000C94EB1A40
S113006075C200000C9417140C94DB136FC20000CB
S11300706DC200006BC2000069C2000067C20000CC
S113008065C2000063C2000061C200000C94993D87
S11300905DC200005BC2000059C2000057C20000EC
S11300A055C2000053C2000051C200004FC20000FC
S11300B04DC200004BC2000049C2000047C200000C
S11300C045C2000043C2000041C200003FC200001C
S11300D03DC200003BC2000039C2000037C200002C
S11300E035C20000CD07CD07CD07CD07AE074511BA
S11300F04511451145114511A207451145114511F9
S1130100451145114511F707F707F70718081808AF
S1130110451145114511451145114511A2074511D8
S1130120A2074511451145114511451145114511C8
S1130130CD0745114308451145111E0845114511C8
S11301404511451145111E08451145114511AE07CC
S113015037083708370837083708370845113D0886
S113016045114511451145114511451145114511DB
S113017045114511451145114511451145114511CB
S113018045114511D3074511451145114511451137
S11301904511451145114511FD07FD07A207120838
S11301A012086E086E086E087D087D087D085F11D0
S11301B09408940894085F115F115F115F115F1137
S11301C05F115F115F115F115F115F115F115F11AB
S11301D05F115F115F115F115F115F115F116E0895
S11301E0D40863116311DE08EB08F80805096311EC
S11301F0090963111709631121092B0935096311D1
S113020063116311450952095F0958145C1464149D
S1130210BB14BB14BB14BB14BB14BB14BB14BB1462
S1130220BB146D147114751479147D148114851420
S11302308914BB148D149114951499149D14A1144C
S1130240BB14A514A914F125F725FA25FF250426C6
S113025012262026D326D326D326312634263D261D
S11302604626D326D326D326D326D326D3265626CC
S1130270662676268426872690269926A026D326C7
S1130280D326A926B426BF260C35103514351835C7
S11302901C352035243528352C3530353435084A7D
S11302A0D73B3BCE016E84BCBFFDC12F3D6C743186
S11302B09ABD56833DDA3D00C77F11BED9E4BB4CDD
S11302C03E916BAAAABE000000803F05A84CCDB2A7
S11302D0D44EB93836A9020C50B9918688083CA688
S11302E0AAAA2ABE000000803F0000007A43000052
S11302F07A4300007A430000FA430000FA43000006
S1130300FA4300A00C4700A00C4700A00C470000D3
S113031048C3000048C3000048C30A000019010A8A
S1130320D7233C6F12033B00007A44000000000016
S1130330000000C8410000FA43FA000000803F7C3E
S113034053693A007C53703A007C413A007C4F7602
S11303503A007C57434F3A007C506E3A007C465337
S11303603A007C4C6E3A007C42663A007C57506FEF
S1130370733A007C4D506F733A00536C656570009E
S1130380446F6F723A00436865636B00416C61723D
S11303906D00486F6D65004A6F6700486F6C643A82
S11303A00052756E0049646C65005B4F50543A000E
S11303B05B5645523A312E31672E3230313830385F
S11303C031332E4D6567613A00244E00204D0020E4
S11303D0470020530020460020540033382E005B91
S11303E047433A47005B544C4F3A005B4739323A33
S11303F0003330003238005B47005B5052423A0011
S11304005B484C503A2424202423202447202449A8
S113041020244E2024783D76616C20244E783D6C57
S1130420696E6520244A3D6C696E652024534C50E6
S1130430202443202458202448207E2021203F20AB
S11304406374726C2D785D0D0A000D0A4772626C3C
S113045020312E3167205B27242720666F722068A5
S1130460656C705D0D0A00536C656570696E67009C
S1130470526573746F72696E67207370696E646C11
S11304806500526573746F72696E67206465666196
S1130490756C74730050676D20456E640043686525
S11304A0636B204C696D69747300436865636B20EA
S11304B0446F6F720044697361626C656400456ED9
S11304C061626C65640043617574696F6E3A2055AE
S11304D06E6C6F636B656400272448277C2724585F
S11304E02720746F20756E6C6F636B0052657365A3
S11304F07420746F20636F6E74696E7565005B4D54
S113050053473A007C53733A200053693A20004120
S11305104C41524D3A000D0A006572726F723A00F6
S11305206F6B0D0A000011241FBECFEFD1E2DEBFB6
S1130530CDBF00E00CBF2FE0A0E0B2E001C01D92EF
S1130540A731B207E1F703D00C94364259CD0E948B
S1130550B2130E942E270E94721B0E94BA398CE0AB
S1130560E7E3FCE0DF011D928A95E9F778941092A5
S1130570160CC6E1DCE00F2EF2E1DF2EF02D14E6BE
S11305800F2EFBE2EF2EFCE0FF2EF02D0CE0888115
S1130590FE019D2D11929A95E9F788831F83188790
S11305A01987D701E02F1D92EA95E9F710922A0CDA
S11305B01092290C1092430C1092150C1092280CD6
S11305C01092450C1092110C1092120C1092130CF4
S11305D01092140C0E94CE1402D40E942D120E9478
S11305E06F130E94AC2F0E9455340E94873D0E94D5
S11305F0C7280E94411B0E946F2D03D40E943A35E4
S11306000E94E117C4CFEF92FF920F931F93CF93F1
S1130610DF938C017B018091050F85FF07C08091DA
S1130620160C803239F0C8010E9480328091160C79
S1130630823019F1C6E1DCE00E94CC168981811177
S11306401CC00E941629882319F00E94D314F4CFE9
S1130650B701C8010E94542A81110FC08091050F6F
S113066081FF0BC0F701848584FF07C04481558155
S11306706681778180E10E944313DF91CF911F91BE
S11306800F91FF90EF9008952F923F924F925F92B7
S11306906F927F928F929F92AF92BF92CF92DF928E
S11306A0EF92FF920F931F93CF93DF93CDB7DEB7F3
S11306B0E2970FB6F894DEBF0FBECDBF9AAB89ABFD
S11306C0788B6F875E874D873901ED82FE820F83B9
S11306D01887898AD12CCC0CDD1CCC0CDD1CCA01FA
S11306E08C0D9D1D9E8B8D8BD901AC0DBD1DBEA7A0
S11306F0ADA72D903D904D905C90FC0120813181FF
S113070042815381C201B1010E94EC3D6F8B788F0D
S1130710898F9A8F0A2D10E0000F111F000F111FEF
S11307208D859E85800F911F9C8F8B8FD301A00F89
S1130730B11FB8ABAFA78D909D90AD90BC90FC015C
S11307402081318142815381C501B4010E94EC3D75
S11307506D8F7E8F8F8F98A3D201C101B05889838A
S11307609A83AB83BC83D501C401B05889879A8727
S1130770AB87BC87E9A9FAA9EC0DFD1D2F89388D3B
S1130780498D5A8D60817181828193810E94EB3DF4
S11307906B017C01E9A9FAA9E00FF11F2D8D3E8DB3
S11307A04F8D58A160817181828193810E94EB3DBC
S11307B04B015C01A701960169817A818B819C813F
S11307C00E9403412B013C01A501940169857A85AE
S11307D08B859C850E9403419B01AC01C301B2013E
S11307E00E94EC3D2B013C01A501940169817A81B1
S11307F08B819C810E9403414B015C01A7019601FE
S113080069857A858B859C850E9403419B01AC0197
S1130810C501B4010E94EB3DA30192010E945F3E19
S11308204B015C0129968FAD29978823A9F02DEB04
S113083037E346E055EBC501B4010E94C840882364
S1130840FCF02BED3FE049EC50E4C501B4010E94FB
S1130850EB3D4B015C0114C02DEB37E346E055E35F
S1130860C501B4010E94C53E181654F02BED3FE0BB
S113087049EC50E4C501B4010E94EC3D4B015C011C
S1130880C090F90ED090FA0EE090FB0EF090FC0EA2
S11308902D813E814F815885CA01B9010E94EC3DEA
S11308A02B013C01A7019601C301B2010E94EB3D5B
S11308B0A70196010E9403410E9490416B017C01B3
S11308C020E030E040E05FE3C501B4010E94034151
S11308D02D813E814F8158850E9403419F77A70156
S11308E096010E94CC3E0E94A23F0E94393F6B01B8
S11308F07C013B016115710509F487C1AF85B88995
S11309001C961C9113FF18C080E090E00E94653F84
S11309109B01AC01EF85F8896081718182819381AB
S11309200E940341AF85B8896D937D938D939C9309
S11309301397177F1C961C93B60180E090E00E94E9
S1130940653F6B017C019B01AC01C501B4010E94B0
S1130950CC3E69A77AA78BA79CA7B9898B2E912C2B
S1130960880C991C880C991C4D845E84480C591C75
S1130970E9A9FAA9E80DF91DD2012D913D914D91F6
S11309805C9160817181828193810E94EB3DA7011A
S113099096010E94CC3E698B7A8B8B8B9C8B29A50C
S11309A03AA54BA55CA5CA01B9010E9403419B016C
S11309B0AC0160E070E080E090E40E94EB3D6B01EC
S11309C07C012BEA3AEA4AE25EE369A57AA58BA5A3
S11309D09CA50E9403414B015C0120E030E040E80B
S11309E050E4C701B6010E94EC3D9B01AC01C50176
S11309F0B4010E94034169A37AA38BA39CA320E0C2
S1130A0030E040E05FE3C701B6010E9403416DA3FB
S1130A107EA38FA398A7B2E06B16710408F4F5C007
S1130A2010E022242394312CC984DA84EB84FC84DE
S1130A301C3008F044C0A70196016DA17EA18FA1CE
S1130A4098A50E9403414B015C0129813A814B81A5
S1130A505C8169A17AA18BA19CA10E940341A5019B
S1130A6094010E94EC3D962EA72EB82E092F2981C1
S1130A703A814B815C816DA17EA18FA198A50E94D2
S1130A80034169837A838B839C83A701960169A1BF
S1130A907AA18BA19CA10E9403419B01AC016981B5
S1130AA07A818B819C810E94EB3D69837A838B835D
S1130AB09C831F5FC92CDA2CEB2CF02E66C0B1018D
S1130AC080E090E00E94653F29A53AA54BA55CA56E
S1130AD00E9403416B017C010E94C93E6D837E83A9
S1130AE08F839887C701B6010E94864169877A87F8
S1130AF08B879C87EDA5FEA5C080D180E280F38022
S1130B00F7FAF094F7F8F094AFA5B8A98D909D90FA
S1130B10AD90BC90A70196016D817E818F819885EF
S1130B200E94034169837A838B839C83A50194018A
S1130B3069857A858B859C850E9403419B01AC0164
S1130B4069817A818B819C810E94EC3D69837A83DF
S1130B508B839C83A701960169857A858B859C8507
S1130B600E9403416B017C01A50194016D817E818A
S1130B708F8198850E9403419B01AC01C701B60196
S1130B800E94EB3D6B017C0110E02F89388D498D6B
S1130B905A8D69817A818B819C810E94EC3DED891B
S1130BA0FE8960837183828393832D8D3E8D4F8D67
S1130BB058A1C701B6010E94EC3DAB8DBC8D6D936D
S1130BC07D938D939C93139729893A894B895C89EA
S1130BD0F20160817181828193810E94EC3DD20196
S1130BE06D937D938D939C9313976F8578898D85F1
S1130BF09E8509DD8091170C81110CC0BFEF2B1A63
S1130C003B0A6214730409F013CF6F85788989A9AC
S1130C109AA9F9DCE2960FB6F894DEBF0FBECDBFF9
S1130C20DF91CF911F910F91FF90EF90DF90CF90C4
S1130C30BF90AF909F908F907F906F905F904F90F8
S1130C403F902F900895CF92DF92EF92FF922091E0
S1130C50160C223049F06B017C010E94941840E08C
S1130C60C701B6010E945B2EFF90EF90DF90CF90FA
S1130C700895CF93C82F0E94A12FCC2321F08C2F4D
S1130C800E94683006C081E00E94683084E00E94BF
S1130C9068300E94CC168091170C811105C0B1D028
S1130CA00E946F2D0E94AC2FCF910895DF92EF9296
S1130CB0FF920F931F93CF93DF932091160C223052
S1130CC009F45CC0D42E7B018C010E94941880919D
S1130CD0170C811155C010921B0CD3FA882780F988
S1130CE00E9444340E946234882351F084E00E94BC
S1130CF05D3D0E94CC1680E00E94443482E043C0F3
S1130D00B701C80180DC81E080932A0C82E00E9454
S1130D10F53AC6E1DCE00E94CC168981811132C02B
S1130D2088818111F8CF80912A0C813081F4D4FE1E
S1130D300AC08CE0E7E3FCE0ABE2BCE001900D927A
S1130D408A95E1F707C085E00E945D3D03C081E01C
S1130D5080931B0C10922A0C80E00E9444340E9461
S1130D60CC160E94411B0E94C7280E946F2D81E06F
S1130D7090911B0C911107C080E005C080E003C076
S1130D8082E001C082E0DF91CF911F910F91FF902B
S1130D90EF90DF9008958091290C84FD1FC080E1BD
S1130DA00E94F53A0E9422120E9466138091160C4A
S1130DB0982F9C7221F490911A0C967079F08430DB
S1130DC041F48091430C811107C086E00E945D3D8F
S1130DD003C083E00E945D3D0C94BF18089580E435
S1130DE0E6E4FCE0DF011D928A95E9F76AE67CE01F
S1130DF080E00E948225811103C087E00C94C634F0
S1130E00089567E37CE08EE59CE00C94763A0895BF
S1130E102F923F924F925F926F927F928F929F9206
S1130E20AF92BF92CF92DF92EF92FF920F931F93F4
S1130E30CF93DF93CDB7DEB7E1970FB6F894DEBF5B
S1130E400FBECDBF8C018AE3E6E8FCE0DF011D9212
S1130E508A95E9F78BE0E6E4FCE0A7E8BCE00190C2
S1130E600D928A95E1F7F8018081843211F00C9497
S1130E70AF11E6E8FCE081E08183128283E089839C
S1130E80F1E0FCA3212C312CE12CF12C1BA219A2A2
S1130E901AA2CC24C394D12C0F2EF1E68F2EF3E0AA
S1130EA09F2EF02D18A30F8F37C29FEB910F9A310D
S1130EB010F00C9441118F5F8983AE014E5F5F4F38
S1130EC0BE016F5F7F4F8F8D98A10E94952D88235F
S1130ED011F40C9443114A805B806C807D80C301C3
S1130EE0B2010E94D1410E94393FA62E70E080E0F9
S1130EF090E00E94673F9B01AC01C301B2010E94D4
S1130F00EB3D20E030E048EC52E40E9403410E94B3
S1130F1066410E94393F862F972F9C01173421F098
S1130F201D3409F4C9C030C18A2D90E08F35910574
S1130F3010F00C944511FC018827EE58FF4F8F4F99
S1130F400C9412422115310511F00C94B3114AA1ED
S1130F50442311F40C94BB110C944711A6E8BCE093
S1130F60AC92BCE1AB1631F0EEE1AE1619F0FCE543
S1130F70AF128BC02115310551F02A30310539F0FB
S1130F800C94491121E02AA302C031E03AA36A0D6E
S1130F90A6E8BCE06C9380E07FC0BAA1B1110C94C8
S1130FA04B11E2E0EAA3A092870CF6E2AF126FC005
S1130FB02431310559F02E31310541F02832310503
S1130FC029F02233310511F00C944D11262F372FBF
S1130FD0ADECBCEC0E941A42969587959695879540
S1130FE09695879586578093870C81E055C06FEE60
S1130FF06A0D60938B0C82E04BC02115310531F4EE
S113100066EA6A0D60938A0C83E046C02A30310593
S113101011F00C944F112AE5A21611F40C945111FD
S113102084E03AC08EE58A198093880C85E030C04C
S113103085E18A198093890C86E02AC04AA141116E
S11310400C94531181E3A81206C010928C0C88E012
S113105093E09AA321C02A30310511F00C94551164
S1131060A1E0A0938C0C88E0B3E0BAA315C06AECAD
S11310706A0D60938D0C89E00BC0232B11F00C9446
S113108057118AE009C087E003C080E001C081E015
S1131090232B11F00C945911F60102C0EE0FFF1F1F
S11310A08A95E2F797012E233F23232B11F00C940A
S11310B05B11EE2AFF2A30C1232B11F00C945D1131
S11310C08A2D90E08F31910510F00C945F11FC0192
S11310D08827EF52FF4F8F4F0C941242AA2021F021
S11310E0F1E0AF16E1F105C023E020938E0C8BE014
S11310F03BC0A0928E0C8BE037C034E0A31659F0AD
S113110045E0A41669F083E0A8122BC080E1809327
S1131110900C8CE029C080E28093900C8CE024C079
S11311201092900C8CE020C098E0A91669F0A9E018
S1131130AA1689F0B7E0AB1216C080918F0C8068B4
S113114080938F0C8DE010C080918F0C806480930D
S11311508F0C8DE009C010928F0C8DE005C08BE0E0
S113116003C08CE001C08DE0F60102C0EE0FFF1F4A
S11311708A95E2F797012E233F23232B11F00C9439
S11311806111EE2AFF2AC8C0812F90E0FC01E654C9
S1131190F109E531F10510F00C9463118827E05151
S11311A0FF4F8F4F0C9412424092920C5092930C2A
S11311B06092940C7092950C80E08DC04092960CD5
S11311C05092970C6092980C7092990CFBA1F1606C
S11311D0FBA381E080C040929A0C50929B0C6092D9
S11311E09C0C70929D0C2BA122602BA382E073C0F7
S11311F040929E0C50929F0C6092A00C7092A10C95
S11312003BA134603BA383E066C0A092A20C84E0BF
S113121062C0C301B2010E94343F6093A30C709377
S1131220A40C8093A50C9093A60C85E054C0409226
S1131230A70C5092A80C6092A90C7092AA0C86E09C
S11312404AC04092AB0C5092AC0C6092AD0C7092C0
S1131250AE0C87E040C04092AF0C5092B00C60924C
S1131260B10C7092B20C88E036C020E030E04FE759
S113127053E4C301B2010E94C840181614F40C943C
S11312806511A092B30C89E026C04092B40C509230
S1131290B50C6092B60C7092B70C49A1416049A399
S11312A08AE019C04092B80C5092B90C6092BA0C02
S11312B07092BB0C89A1826089A38BE00CC0409220
S11312C0BC0C5092BD0C6092BE0C7092BF0C99A1E4
S11312D0946099A38CE05601082E02C0AA0CBB1C92
S11312E00A94E2F791012A213B21232B09F0EFC74D
S11312F0D40102C0B595A7958A95E2F7A0FF0AC06C
S113130020E030E0A901C301B2010E94C53E882358
S11313100CF4DFC72A283B288981EF8DF8A1E80F58
S1131320F11D10811111C1CDB9A1BB2329F0EAA18E
S1131330E11102C0F2E0FAA325FE0EC08091A30CD5
S11313409091A40CA091A50CB091A60C813896495B
S1131350A849B1050CF0BFC73CA13323E1F020FE3E
S1131360BCC78091890C813009F054C006E81CE0A8
S113137023E333E34BEC51E4D8011C966D917D914A
S11313808D919C911F970E940341F8016487758792
S1131390868797873FC08091880C813061F4FAA1D9
S11313A0F230C1F58091870C8035A1F1882391F149
S11313B020FE95C72FC08091470C81112BC020FEC1
S11313C019C08091890C813029F506E81CE023E3DB
S11313D033E34BEC51E4D8011C966D917D918D91D2
S11313E09C911F970E940341F80164877587868743
S11313F0978710C08091550C9091560CA091570C72
S1131400B091580C8093920C9093930CA093940CED
S1131410B093950C30FC10C08091510C9091520CFB
S1131420A091530CB091540C8093AF0C9093B00CDA
S1131430A093B10CB093B20C8091860C843021F44B
S113144026FE4FC7E89426F880918B0C882349F038
S1131450813009F498C71FA6F2E0FEA321E02DA372
S113146097C78091890C8130A1F532E03FA741E014
S11314704EA31DA20F2EF6E8AF2EFCE0BF2EF02DDA
S113148000E010E089A1C82ED12CC601002E02C0B4
S1131490959587950A94E2F780FF12C023E333E31E
S11314A04BEC51E4D5019E966D917D918D919C916B
S11314B0D1970E940341F50166A777A780AB91AB52
S11314C00F5F1F4FF4E0AF0EB11C03301105E9F6B6
S11314D005C022E02FA731E03EA31DA24AA143305C
S11314E041F480918C0C813021F489A1843009F07D
S11314F0FAC68CE0EAE6FCE0DE01169601900D9255
S11315008A95E1F7F1FE11C080918D0C873008F0C7
S1131510ECC690914C0C891741F0BE016A5F7F4F75
S11315200E948225882309F4E2C6B090860C9AE0D2
S1131530B91629F0ACE5BA1609F49AC00EC1B9A1DE
S1131540BB2309F4D6C6C10180759927892B09F4F8
S1131550D2C66091A70C7091A80C8091A90C9091AF
S1131560AA0C0E94D1410E94393F673008F0C5C6D9
S11315708091A20C843129F0823009F0C0C627FC86
S1131580C0C6EFEA2E22662319F061506F8F03C0A4
S1131590F0918D0CFF8F66E97CE08F8D0E9482258F
S11315A0882309F4B0C62091A20C2FA34090820C8A
S11315B05090830C6090840C7090850C06E81CE0BD
S11315C00F2EF6E4CF2EFCE0DF2EF02DA12CB12C53
S11315D039A1832E912CC4010A2C02C095958795BC
S11315E00A94E2F780FF36C04FA1443151F5D60189
S11315F0D0962D913D914D915C91D39758966D91D4
S11316007D918D919C915B970E94EB3DF80126A5FD
S113161037A540A951A90E94EB3DD80150966D937E
S11316207D938D939C935397B2E0AB1213C0A301A7
S113163092010E94EB3DF801608B718B828B938B3E
S113164009C0F80186A597A5A0A9B1A9808B918BA3
S1131650A28BB38BFFEFAF1ABF0A0C5F1F4F24E0BE
S1131660C20ED11C33E0A316B10409F0B4CFA2C654
S113167049A1442309F449C60F2EF6E4AF2EFCE039
S1131680BF2EF02D4E0186E0880E911C06E81CE06A
S1131690C12CD12C642E712CC3010C2C02C0959545
S11316A087950A94E2F780FF3CC0D4012D913D91C7
S11316B04D915C91F501608D718D828D938D0E94A9
S11316C0EB3DD8019E962D913D914D915C91D19722
S11316D00E94EB3DF80166A777A780AB91ABF2E0DF
S11316E0CF1229C08601000F111F000F111F0A57C6
S11316F0134F2091820C3091830C4091840C5091B3
S1131700850C0E94EB3DD8019E966D937D938D933D
S11317109C93D1971091870C103509F4F8C51F8E4E
S1131720F8C0F50180A991A9A2A9B3A9F80186A7D7
S113173097A7A0ABB1ABFFEFCF1ADF0A24E0A20E4C
S1131740B11C34E0830E911C0C5F1F4F43E0C416A0
S1131750D10409F0A1CF1F8E2DC68AA1833009F4CC
S113176090C099A1992309F48CC0A0908A0C0F2EE3
S1131770F6E4CF2EFCE0DF2EF02D06E81CE03E015F
S1131780A6E06A0E711C812C912C492E512C98A232
S11317908F8EC201082C02C0959587950A94E2F7B2
S11317A080FD0BC0F601808D918DA28DB38DF80163
S11317B086A797A7A0ABB1AB54C0F5E3BF1609F455
S11317C050C0A1103BC0D601D0962D913D914D91B2
S11317D05C91D397F30160817181828193810E942E
S11317E0EC3DD8019E962D913D914D915C91D19700
S11317F00E94EC3D9B01AC01F80166A777A780AB82
S113180091ABF2E08F122DC00F8D18A1000F111FA4
S1131810000F111F0A57134F6091820C7091830CB3
S11318208091840C9091850C0E94EC3DD8019E9689
S11318306D937D938D939C93D19723C0F601208D56
S1131840318D428D538DD8019E966D917D918D91F0
S11318509C91D1970E94EC3DF80166A777A780ABD5
S113186091ABFFEF8F1A9F0A24E0C20ED11C0C5FCC
S11318701F4F34E0630E711C43E08416910409F099
S113188086CF8EE1B81631F095E3B91699F1ACE143
S1131890BA1235C0BCE1BB1209C066E97CE086E03F
S11318A00E948225882309F434C578C566E97CE062
S11318B087E00E948225882309F42DC56FC5A901FC
S11318C0082E02C0559547950A94E2F740FD0AC0D8
S11318D058964D915D916D917C915B97408B518BA6
S11318E0628B738B0196149634968330910539F785
S11318F01F8E60C58091870C823008F00EC5109150
S1131900870C103529F4E9A1E11109C51F8E46C2DF
S11319101F8EFAA1F23009F041C2111105C029A1AC
S113192021113CC21AA23AC220E030E0A901609120
S1131930920C7091930C8091940C9091950C0E9450
S1131940C53E882309F4EDC41C3809F40FC240F4E1
S11319501230A1F01330A9F0113009F01FC209C0F0
S11319601E3809F403C208F4FEC11F3809F4FBC190
S113197015C239A1311112C21AA210C24CA144607D
S11319804CA389A1882309F4CEC4BDA1AB2FB0E038
S1131990B9ABA8ABEEA1CE2ED12C81E090E08C01A6
S11319A00DA002C0000F111F0A94E2F702C0880FB5
S11319B0991FEA95E2F7082B192BF9A18F2F90E0D4
S11319C080239123892B09F4B0C4FD01EE0FFF1F7E
S11319D0EE0FFF1FEA57F34FAA0FBB1FAA0FBB1F3F
S11319E0A25AB34F2D913D914D915C9166A577A577
S11319F080A991A90E94EB3D6FA378A789A79AA714
S1131A00F601EE0FFF1FEE0FFF1FEA57F34FD6014B
S1131A10AA0FBB1FAA0FBB1FA25AB34F2D913D9112
S1131A204D915C9166A577A580A991A90E94EB3D93
S1131A306BA77CA78DA79EA727FEEAC0E89427F88A
S1131A404CE050E064EB7CE08EE59CE00E9429428F
S1131A50892B09F46CC48091890C8130A1F406E8C7
S1131A601CE023E333E34BEC51E4D80195966D91EC
S1131A707D918D919C9198970E940341F80165A3F3
S1131A8076A387A390A78090AB0C9090AC0CA09009
S1131A90AD0CB090AE0C20E030E040E850E4C5015D
S1131AA0B4010E940341A50194010E9403414B012A
S1131AB05C012FA138A549A55AA5CA01B9010E9404
S1131AC003419B01AC01C501B4010E94EB3D4B01F4
S1131AD05C012BA53CA54DA55EA5CA01B9010E94D8
S1131AE003419B01AC01C501B4010E94EB3D4B01D4
S1131AF05C0120E030E0A9010E94C53E88230CF47B
S1131B0018C4C501B4010E9490414B015C012BA58E
S1131B103CA54DA55EA56FA178A589A59AA50E94AF
S1131B20A32E9B01AC01C501B40190580E94CC3E88
S1131B304B015C018091870C833021F4B7FAB09497
S1131B40B7F8B0944090AB0C5090AC0C6090AD0CD6
S1131B507090AE0C20E030E0A901C301B2010E94F4
S1131B60C53E882384F4B7FAB094B7F8B09477FAF2
S1131B70709477F870944092AB0C5092AC0C6092D5
S1131B80AD0C7092AE0C08A919A9000F111F000F1B
S1131B90111F0A56134F2BA53CA54DA55EA5C501E3
S1131BA0B4010E9403419B01AC016FA178A589A5F2
S1131BB09AA50E94EB3D20E030E040E05FE30E9404
S1131BC00341D8016D937D938D939C931397860164
S1131BD0000F111F000F111F0A56134F2FA138A514
S1131BE049A55AA5C501B4010E9403412BA53CA5F2
S1131BF04DA55EA50E94EC3D20E030E040E05FE3AF
S1131C000E940341F8016083718382839383C6C079
S1131C10FBA18F2E912C08211921012B09F48BC3D0
S1131C2021EF22228091890C813041F506E81CE0E5
S1131C30A12CB12CC4010A2C02C0959587950A9455
S1131C40E2F780FF12C023E333E34BEC51E4D80105
S1131C5050966D917D918D919C9153970E94034173
S1131C60F801608B718B828B938BFFEFAF1ABF0AE5
S1131C700C5F1F4F23E0A216B104E1F6C601880FE2
S1131C80991F880F991FDC01AA56B34F6D012D913E
S1131C903D914D915C916BA57CA58DA59EA50E945F
S1131CA0EB3D4B015C0108A919A9000F111F000F9E
S1131CB0111F0A56134FF80120813181428153814B
S1131CC06FA178A589A59AA50E94EB3DA501940171
S1131CD00E94A32E4B015C01D6012D913D914D91A3
S1131CE05C91F80160817181828193810E94A32EAD
S1131CF02B013C016093AB0C7093AC0C8093AD0C46
S1131D009093AE0C9B01AC01C501B4010E94EB3D64
S1131D104B015C01E894B7F82AE037ED43EA5BE352
S1131D20C501B4010E94C8401816C4F520E030E093
S1131D3040E05FE3C501B4010E94C84018160CF4EA
S1131D40FCC22FE632E143E85AE3C301B2010E9428
S1131D5003419B01AC01C501B4010E94C84018169F
S1131D600CF4EDC21BC0FCA1F061FCA31E581230A0
S1131D7018F42CA128602CA339A1332309F4E1C25F
S1131D804CE050E064EB7CE08EE59CE00E9429424C
S1131D90892B09F4D8C202C01F8E1AA24CA141702B
S1131DA0D42E8CA180FF03C0C1018E7D03C0C1016C
S1131DB08E7D9C7FAAA1A111937E892B09F0C5C2B7
S1131DC0FE0172968DE0DF011D928A95E9F7DD2010
S1131DD059F1B6EBEB22EF2809F0B9C28091860CD9
S1131DE0853311F08111B5C2E6E4FCE08385948566
S1131DF0A585B6858E8B9F8BA88FB98F918580859D
S1131E00892B8E8F66E87CE0CE0142960E94AA3D23
S1131E108111EDC29CE0E4EBFCE0AEE5BCE0019096
S1131E200D929A95E1F7E3C28091050F81FF26C0D8
S1131E308091870C8150833018F0ECA1E064ECA30E
S1131E40F9A1FF2339F02AA1223021F43CA1306802
S1131E503CA314C080914F0C803181F48091460CD6
S1131E608150833030F44CA146FF08C040624CA33B
S1131E7005C08CA186FD02C080628CA3A6E8BCE0EC
S1131E805D964D915D916D917C919097E6E4FCE0B7
S1131E90448B558B668B778B4A8F5B8F6C8F7D8FD2
S1131EA012968C918183882311F088E08E8FA6E8A6
S1131EB0BCE01C964D915D916D917C911F97E6E479
S1131EC0FCE04787508B618B728B4A8B5B8B6C8BEE
S1131ED07D8B99968D909D90AD90BC909C97A5011B
S1131EE0940163857485858596850E94C53E81111C
S1131EF003C09CA195FF21C080914F0C882369F0F9
S1131F00ACA1AA2354F0A6FF05C040E050E0BA01FA
S1131F10BAD303C0B501A401B6D38091AF0C90919C
S1131F20B00CA091B10CB091B20C8093510C909371
S1131F30520CA093530CB093540CBCA1B6FD0CC02E
S1131F408091510C9091520CA091530CB091540C6F
S1131F508E8B9F8BA88FB98FE6E4FCE0A6E8BCE0EB
S1131F609D968C919D97838B1A968C919185981749
S1131F7049F04E895F89688D798D85D38091900C65
S1131F8080934F0CE6E4FCE09E8D8185892B8E8F37
S1131F9080918F0C9085981729F0CCD380918F0C69
S1131FA080934E0C9E8D80914E0C892B8E8F809148
S1131FB0860C843051F46091A70C7091A80C809128
S1131FC0A90C9091AA0C0E942306E6E4FCE0A6E882
S1131FD0BCE015968C911597848313968C9182831B
S1131FE0EAA1E33071F580918C0C80934B0C811144
S1131FF008C01092BC0C1092BD0C1092BE0C109232
S1132000BF0C8090BC0C9090BD0CA090BE0CB09006
S1132010BF0CA50194016091820C7091830C809196
S1132020840C9091850C0E94C53E882351F08092C7
S1132030820C9092830CA092840CB092850C0E9426
S1132040573A80918D0C90914C0C981769F08093BD
S11320504C0C8CE0FE013696AAE6BCE001900D9291
S11320608A95E1F70E94573AE6E8FCE08481809380
S1132070490C8081863209F446C038F48C3129F148
S11320808E3119F18A3059F05FC08C3509F447C09C
S1132090863609F450C0883209F056C03AC066E961
S11320A07CE08F8D0E94DF2480914C0CFF8D8F1378
S11320B04BC08CE0E6E9FCE0AAE6BCE001900D929E
S11320C08A95E1F70E94573A3FC08E8D81608E8FCA
S11320D02AA1222339F0BE016E5E7F4F84EB9CE07F
S11320E00E940303BE016E5E7F4F86E99CE00E945E
S11320F003038CE0E6E9FCE0AEE5BCE001900D9260
S11321008A95E1F721C06EE57CE086E00E94DF2439
S11321101BC06EE57CE087E00E94DF2415C08CE0E4
S1132120E4EBFCE0A6E7BCE001900D928A95E1F7B0
S11321300E94573A09C08CE0E6E7FCE0DF011D92FB
S11321408A95E9F70E94573A8091870C8093460C50
S1132150803509F456C0BAA1B23009F052C08130BA
S113216041F4BE016E5E7F4F84EB9CE00E9403034A
S11321703AC081110BC08E8D81608E8FBE016E5E60
S11321807F4F84EB9CE00E9403032DC08250823079
S1132190E8F4E090AB0CF090AC0C0091AD0C109115
S11321A0AE0CECA1E2FB882780F98F938FA4AEA03C
S11321B0CDA026E93CE04EE55CE0BE016E5E7F4FBB
S11321C084EB9CE00E9444030F900DC08E8D8460CC
S11321D08E8F4CA1BE016E5E7F4F84EB9CE00E940B
S11321E0560681110AC08CE0E4EBFCE0AEE5BCE0ED
S11321F001900D928A95E1F704C0813011F40E9498
S1132200010780918E0C80934D0C882309F4EFC054
S11322108BD780914D0C833049F48091160C823019
S113222061F188E00E94F53AB7D527C0E6E4FCE006
S113223081E08083148213821182168211861086B3
S1132240E6E1FCE084E687838087818780818230B1
S113225089F06AE67CE080E00E948225882309F404
S11322607AC00E94573A40E050E0BA0180E0E1D1E0
S113227080E03FD288E00E94FA3410924D0C8D2DFC
S1132280B6C081E0B4C082E0B2C084E1B0C088E1ED
S1132290AEC084E1ACC088E1AAC084E1A8C084E1F6
S11322A0A6C084E1A4C088E1A2C084E1A0C084E106
S11322B09EC087E19CC085E19AC087E198C084E113
S11322C096C085E194C084E192C086E290C089E121
S11322D08EC084E08CC08BE18AC086E188C086E130
S11322E086C08CE184C085E282C08DE180C087E035
S11322F07EC08AE17CC08CE17AC08DE178C084E143
S113230076C084E174C087E072C08AE170C08FE156
S11323106EC087E06CC087E06AC08EE168C08FE160
S113232066C086E164C08AE162C080E260C081E286
S11323305EC082E25CC083E25AC081E258C081E29E
S113234056C08AE154C081E252C084E250C080E1A8
S11323504EC080E14CC087E04AC08FE148C019827A
S11323601CA20C944207A6E8BCE0AC92BCE1AB1200
S113237027C00C94BD07E6E8FCE0A082FCE1AF12A4
S113238025C00C94C20721E02FA71EA232E03DA372
S11323908091890C813009F0A1C86CC849A14423FB
S11323A0F1F0A6E4BCE0E6E8FCE080E090E0242F55
S11323B030E085CA1091870C103509F0AACACDCF38
S11323C08EE1A8120C94B7070C94BD079EE1A916E0
S11323D011F40C94C507A1E0AAA30C94B7071091BB
S11323E0870C103509F4D8CC1F8E1AA292CAE19634
S11323F00FB6F894DEBF0FBECDBFDF91CF911F9112
S11324000F91FF90EF90DF90CF90BF90AF909F908F
S11324108F907F906F905F904F903F902F90089592
S113242090910201892F887093FF0BC09091A000B6
S1132430892F807295FF05C0739902C081E00895C9
S113244082E00895E0EAF0E080818F7D8083E2E01D
S1132450F1E08081877F80830895E1E0F1E080816D
S11324608061808383E08093A0008AE18093A1004F
S113247080E094E09093A9008093A8008081886014
S113248080836B9A2091010F3091020F4091030FCA
S11324905091040F6091FD0E7091FE0E8091FF0E1D
S11324A09091000F0E94EB3D9B01AC0160E070EC49
S11324B08FE794E40E94CC3E609300027093010283
S11324C08093020290930302BDCF08959093AB00D2
S11324D08093AA00892B31F4E0EAF0E080818F7DBB
S11324E080830895E0EAF0E080818062808308952B
S11324F04F925F926F927F928F929F92AF92BF9210
S1132500CF92DF92EF92FF922B013C018090010F5A
S11325109090020FA090030FB090040FC090FD0E96
S1132520D090FE0EE090FF0EF090000FA7019601F0
S1132530C501B4010E94C8408823CCF460911F0CEB
S113254070E080E090E00E94673F2AE037ED43E2CC
S11325505CE30E940341A30192010E9403412B0109
S11325603C01A70196010E94C84088235CF0C092F8
S1132570240CD092250CE092260CF092270C80E0DB
S113258094E04AC0A5019401C301B2010E94C53E72
S11325901816FCF020E030E0A901C301B2010E944A
S11325A0C53E81110BC01092240C1092250C109280
S11325B0260C1092270C80E090E02EC08092240C10
S11325C09092250CA092260CB092270C81E090E00A
S11325D023C04092240C5092250C6092260C7092D9
S11325E0270CA5019401C301B2010E94EB3D209187
S11325F000023091010240910202509103020E94B4
S113260003410E94A23F20E030E040E85FE30E94E3
S1132610EC3D0E94393FCB01FF90EF90DF90CF90CB
S1132620BF90AF909F908F907F906F905F904F90EE
S113263008959091170C911125C081110AC0109230
S1132640240C1092250C1092260C1092270CFADE02
S113265017C0803111F473980AC0739A9091050FD2
S113266091FF05C0803219F440E050E0BA01CB017B
S1132670BA013EDF2BDFE2E0F1E0808188608083F5
S11326801092210C0895CF92DF92EF92FF92CF9394
S11326909091160C923041F06A017B01C82F44D509
S11326A0B701A6018C2FC5DFCF91FF90EF90DF908B
S11326B0CF9008958091020185FF02C080E401C09B
S11326C080E09091020196FD80680895E2E0F1E0D7
S11326D080818F7D808380818F7B80830895E1E07A
S11326E0F1E0808180628083808180648083EECF8A
S11326F008959091170C91111CC086FF06C0E2E06A
S1132700F1E090819062908305C0E2E0F1E0908175
S11327109F7D9083882334F4E2E0F1E0808180643B
S1132720808305C0E2E0F1E080818F7B808310929A
S1132730210C0895CF939091160C923021F0C82F5C
S1132740F3D48C2FD6DFCF91089580910602909117
S11327500702981720F0981B892F809508958150BF
S1132760891B0895E0ECF0E0808182608083109200
S1132770C50080E18093C400E1ECF0E080818869C9
S113278080830895E091050221E02E0F04C090910A
S1132790290C94FD0FC0909104022917C1F3F0E0B5
S11327A0E054F34F808320930502E1ECF0E0808154
S11327B08062808308951F920F920FB60F921124A6
S11327C00BB60F928F939F93EF93FF938091040224
S11327D0E82FF0E0E054F34F90819093C6008F5FB0
S11327E08093040290910502891305C0E1ECF0E0A6
S11327F080818F7D8083FF91EF919F918F910F90C6
S11328000BBE0F900FBE0F901F901895909106026B
S113281080910702981749F0E92FF0E0E054F24F55
S113282080819F5F9093060208958FEF08951F9211
S11328300F920FB60F9211240BB60F922F933F9362
S11328404F935F936F937F938F939F93AF93BF93B4
S1132850EF93FF93E091C600E132A1F018F4E83160
S113286031F014C0EF3331F0EE3741F00FC00E9465
S1132870CB0681C081E00E94F53A7DC082E00E94CF
S1132880F53A79C088E00E94F53A75C0EE230CF061
S113289064C08E2F90E0FC01E458F109EE31F1059B
S11328A008F069C08827EB5FFE4F8F4F0C941242EB
S11328B080E20E94F53A5FC08091160C85FF5BC0F0
S11328C080E40E94F53A57C09FB7F8948091440C75
S11328D081608093440C9FBF4EC081E00E94693D9B
S11328E04AC082E00E94693D46C084E00E94693D7E
S11328F042C088E00E94693D3EC080E10E94693D7B
S11329003AC080E20E94693D36C080E40E94693D7D
S113291032C080E80E94693D2EC081E00E94723D71
S11329202AC082E00E94723D26C084E00E94723D6B
S113293022C088E00E94723D1EC080E10E94723D68
S11329401AC080E20E94723D16C080E40E94723D6B
S113295012C080E80E94723D0EC0A091070281E07F
S11329608A0F90910602891731F0B0E0A054B24F5B
S1132970EC9380930702FF91EF91BF91AF919F91E8
S11329808F917F916F915F914F913F912F910F9014
S11329900BBE0F900FBE0F901F90189580910702E9
S11329A08093060208950E94ED28892B19F082E095
S11329B00C94F53A0895CF93DF93C091430CCC2344
S11329C0A9F081E08093160C8C2F0E94D634C1505C
S11329D0C23050F481E00E94FA3480E10E94533DF9
S11329E08091290C84FFFCCF0E94633DC091290C87
S11329F0CC2309F4F4C0C4FF04C081E08093170C15
S1132A00C8C1C0FF05C00E94B73781E00E94533D92
S1132A108C2F887E09F463C08091160C982F9370D4
S1132A2009F04CC0887291F08091180C807C71F48C
S1132A307BD6E6E1FCE082E084838081803231F45D
S1132A40CC23BCF092819068928313C08091160CC1
S1132A50811106C091E09093180CC6FD05C096C183
S1132A60C6FF07C085FD05C0E6E1FCE092819064E5
S1132A709283C3FF05C0807E19F480E18093160C15
S1132A80C5FF1CC086E00E94FA348091180C88238C
S1132A9084F09091160C903439F483FF07C0837E40
S1132AA082608093180C02C0903819F080E48093FF
S1132AB0160CE6E1FCE0828180628283CC2364F41C
S1132AC08091160C813029F4E6E1FCE08281856076
S1132AD0828380E88093160C88EE0E94533DC1FFE8
S1132AE041C08C2F8876D9F58091160C803479F406
S1132AF08091180C85FD33C084FF03C01092160C1E
S1132B0018C082FF2CC088608093180C28C08823CA
S1132B1081F084FF24C09091180C90FF20C0803174
S1132B2041F48091200C882321F088608093200C4C
S1132B3016C010921A0C0E94ED28892B61F0809126
S1132B40180C86FD08C0E6E1FCE0128288E0808370
S1132B500BD6FDD204C0E6E1FCE01282108282E0D2
S1132B600E94533DC2FF3BC08091160C807DB9F09A
S1132B708091190C811113C08091180C88239CF04A
S1132B800E948D2D80911A0C81FF05C0E6E1FCE0C6
S1132B90928191609283897F80931A0C1DC08091E9
S1132BA0180C88234CF410921A0C0E94C72869D57B
S1132BB00E9401070E946F2D8091180C85FF08C0A8
S1132BC0E6E1FCE08F778160828380E4808304C047
S1132BD0E6E1FCE01282108284E00E94533DC09141
S1132BE0150CCC2381F10E947B3D20911D0CC0FF6C
S1132BF002C084E601C0822FC1FD865FC2FD8A50F7
S1132C00C3FD8F5FC4FD8150893C08F088EC8A3095
S1132C1008F48AE030911E0CC5FF02C094E601C09E
S1132C20932FC6FD92E3CC230CF499E1281302C040
S1132C30931749F0E6E1FCE08783908713860E94AE
S1132C409B290E948D2DC091280CCC2309F460C0CF
S1132C500E94813D90911F0CC0FF02C084E601C018
S1132C60892FC1FD865FC2FD8A50C3FD8F5FC4FDFD
S1132C708150893C08F088EC8A3008F48AE098177F
S1132C80B1F0E6E1FCE081878081811109C0E6E4CE
S1132C90FCE043855485658576858185CADC05C05D
S1132CA0E6E1FCE08481886084831092210CC5FFF6
S1132CB012C08091160C803171F48091200C811126
S1132CC004C082E08093200C5CC080FF5AC0846002
S1132CD08093200C56C08C2F807CD1F08091160CF0
S1132CE0882311F08873A1F0D0914E0CCC232CF4DE
S1132CF0DD2314F4DF7701C0D068C6FF05C0D6FF1A
S1132D0002C0DF7B01C0D0648D2FF3DCD0934E0C66
S1132D108091100C81FF19C04091110C5091120C3C
S1132D206091130C7091140C4F5F5F4F6F4F7F4F86
S1132D304093110C5093120C6093130C7093140C69
S1132D409091100C9D7F9093100C80FF0CC080918B
S1132D50450C8F5F8093450C8091100C8E7F80937F
S1132D60100C0E94E3348091440C882321F00E94CB
S1132D70B9391092440C8091160C8C7F51F0F4D424
S1132D8008C08C2F807C09F0AFCFC2CFC3FD75CEB5
S1132D9077CEDF91CF9108957F928F929F92AF92D9
S1132DA0BF92CF92DF92EF92FF920F931F93CF9334
S1132DB0DF9301DE8091180C882309F4F4C00E948B
S1132DC0ED28EC01892B51F4E6E4FCE0D184808504
S1132DD0D82A83849484A584B6840AC08989182F48
S1132DE0107368DCD82ED12A8AA89BA8ACA8BDA8E9
S1132DF08091050F81FF03C080E20E94723D909193
S1132E00180C992309F4CFC08091170C8111CBC001
S1132E10C6E1DCE08D2D8073C82E06E41CE00F2E85
S1132E20F5E0EF2EFFE0FF2EF02D77247394ED2DC7
S1132E30E07CDE2E03C029812111B5C090FFA7C01C
S1132E402881322F307C09F469C092FD0DC01A86A6
S1132E5040E050E0BA0180E0ECDB80E04ADC8A81AB
S1132E608D7F84608A8393C02038B1F48BE00E9404
S1132E70FA3440E050E0BA0180E0DBDB80E039DC8A
S1132E807ED18091170C81118EC0C6E1DCE093DD08
S1132E9089818823E1F387C0203439F40E94323ACF
S1132EA0811103C08A818F7D8A838A8183FF6FC0E9
S1132EB0F80191859923C9F081FD6EC0F7018081E5
S1132EC081FF08C08C8188608C83F8018085811122
S1132ED013C067C0B501A4018C2DABDB472D60E0A6
S1132EE070E080E890E40E945B2EF80180858823DE
S1132EF061F08A8181FD4BC08D2DFBDB472D60E0A5
S1132F0070E080E89FE30E945B2E8A8181FD3FC0D0
S1132F1080618A8382E00E94F53A39C09A859923B8
S1132F2061F191FF0DC0F8018185882339F040E0FB
S1132F3050E0BA0180E07DDB7A8629C01A8627C07A
S1132F409C7029F1F8018185882379F08AE00E9438
S1132F50FA34F701808181FF04C08C8188608C83FE
S1132F6004C0B501A4018C2D64DB8A8583FF03C0F2
S1132F7082E00E94F53A1A860AC08C8183FF07C05A
S1132F80B501A4018C2D55DB8C81877F8C8313DDE7
S1132F909A81911150CF07C0F80180858111F7CF34
S1132FA0B4CF8A81B5CFDF91CF911F910F91FF905C
S1132FB0EF90DF90CF90BF90AF909F908F907F90D5
S1132FC00895DF92EF92FF920F931F93CF93DF93B5
S1132FD08091050F83FF0AC00E94CD2F882331F012
S1132FE081E08093160C87E00E94FA348091160CDD
S1132FF0817871F082E00E94FA3481E08093160CAB
S1133000F12CE12CC6E1DCE008E012E0D12C7BC01D
S11330101092160C0E94323A882331F08091290CC8
S113302080628093290CB8DE88E092E00E94353AF1
S1133030E7CF8A3011F08D30B1F5AEDE8981811190
S11330406BC0EF2DF0E0E85FFD4F1082E0FE06C09C
S11330508BE00E94C634FD2CE12C55C0F801808120
S1133060811106C08D2D0E94C634FD2CE12C4BC06D
S1133070843241F4C8010E94FE3A0E94C634FD2CF9
S1133080E12C41C08881817231F089E00E94C6340C
S1133090FD2CE12C38C0C8010E9408070E94C634E8
S11330A0FD2CE12C30C0EE2031F0893261F5FE2D8B
S11330B0FD7FEF2E28C0813230F18F3221F188322A
S11330C0C1F08B33D1F09FEFF916D9F09FE9980F37
S11330D09A3140F4EF2DF0E0E85FFD4F8052808399
S11330E0F39411C0EF2DF0E0E85FFD4F8083F3947B
S11330F00AC06894EE24E1F806C06894EE24E2F86D
S113310002C0EE24E39482DB8F3F09F092CF4BDCC4
S113311043DE89818823B9F3DF91CF911F910F9109
S1133120FF90EF90DF900895CF93DF933CDCC6E1EE
S1133130DCE032DE8981811107C00E94ED28892BF1
S1133140C1F788818830A9F3DF91CF9108958091E8
S1133150050F82FF02C02F9A01C02F98E3E4F3E029
S113316080913F0386878091F00E880F845081956B
S11331708587EFE6F0E08081826080830895EFE642
S1133180F0E080818D7F8083E1E8F0E08081887FBA
S11331908160808310923D038091F30E8F3F49F448
S11331A09091430C911105C09091160C903881F4C4
S11331B004C09091160C943059F090E00E94982E1F
S11331C08091050F82FD02C02F9A08952F980895CB
S11331D08091050F82FFFACFF7CF1F920F920FB69F
S11331E00F9211240BB60F922F933F934F935F933B
S11331F06F937F938F939F93AF93BF93CF93DF93FB
S1133200EF93FF9380913D038111D0C188B1E3E432
S1133210F3E09785907E8F71892B88B982B1837E84
S11332209685892B82B9858586BD82E085BD81E03E
S113323080933D03789481A192A1892B09F0A9C0C0
S11332408091420390914103981709F493C0E0914F
S11332504203F0E0A3E4B3E0EE0FFF1FEE0FFF1F05
S1133260EE0FFF1FEA59FC4F9296FC93EE93919751
S113327082819381909389008093880080819181D9
S11332805D969C938E935C9784815E969C915E97E9
S1133290981749F1ED018E8F90E0880F991FDC019A
S11332A0AA0FBB1FAA0FBB1FAA0FBB1F8A0F9B1F0E
S11332B0DC01AA54BC4FB8A3AF8F1C968D919D918D
S11332C00D90BC91A02DB695A79597958795888765
S11332D09987AA87BB878C839D83AE83BF838883AA
S11332E09983AA83BB83A3E4B3E05F96CD91DC9179
S11332F09097988980913E0389271F968C931F97F6
S1133300488159816A817B81058004C076956795DF
S1133310579547950A94D2F750964D935D936D93C4
S11333207C9353974C815D816E817F81058004C0BD
S113333076956795579547950A94D2F754964D9389
S11333405D936D937C935797488559856A857B85F2
S1133350058004C076956795579547950A94D2F7EA
S113336058964D935D936D937C935B97868197817B
S1133370ADD80FC004DFE0916203F091630381894B
S1133380882319F080E090E0A1D884E00E94F53A07
S11333900DC180912A0C813011F40E946934E3E458
S11333A0F3E016864081518162817381808991891D
S11333B0A289B389840F951FA61FB71F80839183A9
S11333C0A283B383078CF0A1E02D448555856685DF
S11333D07785481759076A077B0770F5C3E4D3E07C
S11333E024E02E874485558566857785841B950B57
S11333F0A60BB70B88839983AA83BB838089882310
S113340074F4C7E3DCE088819981AA81BB810197C8
S1133410A109B10988839983AA83BB830DC0C7E33B
S1133420DCE088819981AA81BB810196A11DB11D2F
S113343088839983AA83BB83C3E4D3E04C815D81F1
S11334406E817F818C899D89AE89BF89840F951F88
S1133450A61FB71F8C839D83AE83BF834485558588
S113346066857785481759076A077B0768F52E85AF
S113347028602E874485558566857785841B950B42
S1133480A60BB70B8C839D83AE83BF83808986FF95
S11334900EC0C7E3DCE08C819D81AE81BF810197C2
S11334A0A109B1098C839D83AE83BF830DC0C7E39B
S11334B0DCE08C819D81AE81BF810196A11DB11D8F
S11334C08C839D83AE83BF83C3E4D3E04885598551
S11334D06A857B85888D998DAA8DBB8D840F951FF8
S11334E0A61FB71F88879987AA87BB8744855585F8
S11334F066857785481759076A077B0768F52E851F
S113350020612E874485558566857785841B950BB8
S1133510A60BB70B88879987AA87BB87808985FF05
S11335200EC0E7E3FCE080859185A285B385019711
S1133530A109B10980879187A287B3870DC0E7E30A
S1133540FCE080859185A285B3850196A11DB11DFE
S113355080879187A287B3878091160C843039F4D1
S1133560E3E4F3E0968580911C0C89238687E3E4E9
S1133570F3E0848D958D0197958F848F892B69F461
S11335801092650310926403809142038F5F8093CD
S113359042038A3011F410924203E3E4F3E0968587
S11335A080913F038927868710923D03FF91EF9115
S11335B0DF91CF91BF91AF919F918F917F916F9147
S11335C05F914F913F912F910F900BBE0F900FBEC3
S11335D00F901F9018951F920F920FB60F921124FF
S11335E08F939F9382B190913F039C71837E892B2B
S11335F082B915BC9F918F910F900FBE0F901F90B1
S11336001895EF92FF920F931F93CF93DF9310922D
S11336103F0310923E03C0E0D0E000EC1EE0EC2E2D
S1133620FC2EF80181A990E00C2E02C09595879597
S11336300A94E2F780FF08C08C2F0E9439279091EA
S11336403F03892B80933F03F80182A990E002C0D5
S113365095958795FA94E2F780FF08C08E2D0E9415
S1133660432790913E03892B80933E032196C330D8
S1133670D105A9F6DF91CF911F910F91FF90EF90A3
S11336800895CF93DF937BDD81E3E8E0F3E0DF018E
S11336901D928A95E9F7C3E4D3E083E2FE01119217
S11336A08A95E9F710923C0310923B03109242036F
S11336B01092410381E08093400310923D03A1DF07
S11336C080913E038F8782B1837E90913F03892B43
S11336D082B988B18F7190913E03892B88B9DF91AB
S11336E0CF91089581B18C6181B9279A87B1806E99
S11336F087B9E1E8F0E080818F7E808380818860F3
S11337008083E0E8F0E080818C7F808380818F700B
S11337108083EEE6F0E08081887F808314BC15BC52
S11337208081816080830895CF93DF93C0913B03B0
S1133730D0913C032097A9F0E8E0F3E08181816017
S113374081836789708D818D928D9B01AC010E946C
S113375003416E8B7F8B888F998F10923C0310925C
S11337603B03DF91CF9108952F923F924F925F9246
S11337706F927F928F929F92AF92BF92CF92DF927D
S1133780EF92FF920F931F93CF93DF93CDB7DEB7E2
S1133790EC970FB6F894DEBF0FBECDBF80911A0C24
S11337A080FF02C00C94E4230F2EF8E06F2EF3E0A8
S11337B07F2EF02D22E02AAF29AFCDC780913B03A5
S11337C090913C03892B09F011C380911A0C82FF5C
S11337D007C00E94E42890933C0380933B0306C0F7
S11337E00E94ED2890933C0380933B03E0903B03BD
S11337F0F0903C03E114F10409F4E6C7D3011196F7
S11338001C911197812F817010FF03C011961C9297
S1133810EBC0F30190819F5F993009F0892FD301A8
S11338208C9390E0FC01EE0FFF1F9F01220F331FCA
S1133830220F331F220F331FE20FF31FEA54FC4FF2
S1133840F0933A03E0933903D70150962C915097A3
S1133850208B9701245F3F4FFA82E9824D915D915D
S11338606D917D91440F551F661F771F440F551F9F
S1133870661F771F440F551F661F771F419351938F
S113388061937193A217B30749F7E980FA80880F0F
S1133890991FFC01EE0FFF1FEE0FFF1FEE0FFF1F1E
S11338A08E0F9F1F9C012A543C4FF70184859585F8
S11338B0A685B785880F991FAA1FBB1F880F991F5C
S11338C0AA1FBB1F880F991FAA1FBB1FF90184875A
S11338D09587A687B787D7011C966D917D918D91A9
S11338E09C911F970E94653FF301668377838087CD
S11338F09187D70192962D913D914D915C91959729
S11339000E94CC3E9B01AC01F301628773878487DC
S1133910958760E070E080EA9FE30E94CC3ED3018B
S11339201E966D937D938D939C935197F301128210
S113393013821482158280911A0C81FD02C013FF38
S11339401BC0D3015F966D917D918D919C9192974F
S1133950F301678B708F818F928F9B01AC010E9462
S11339600341D70156966D937D938D939C935997FC
S1133970177FF30111830EC0D70156966D917D9187
S11339808D919C9159970E949041F301678B708FA0
S1133990818F928F2091390330913A033A8329839E
S11339A0D90151961C92E5E0FFE0808181FF1CC0A3
S11339B0E0913B03F0913C03818985FF15C026A566
S11339C037A540A951A960E070E080E89FE30E9418
S11339D0CC3ED3019B966D937D938D939C939E9740
S11339E021E0E981FA81218BD30153961D921D9226
S11339F01D921C925697E0913B03F0913C03FE8389
S1133A00ED83868C978CA0A0B1A0A501940160E001
S1133A1070E080E09FE30E94CC3E69837A838B83CD
S1133A209C8380911A0C81FF54C0E2E0D30152962A
S1133A30EC93AD81BE8192962D903D904D905C901B
S1133A4095975696CD90DD90ED90FC905997A701EF
S1133A50960169817A818B819C810E9403419B013B
S1133A60AC01C201B1010E94EB3D69837A838B836F
S1133A709C8320E030E0A9010E94C53E8823C4F461
S1133A80A5019401C501B4010E94EC3DA20191017C
S1133A900E9403419B01AC01C701B6010E94EB3DAA
S1133AA00E949041F301678F70A381A392A399C1EF
S1133AB029813A814B815C81D30153962D933D93A7
S1133AC04D935C935697F301178E10A211A212A284
S1133AD088C1D30152961C925297ED81FE8142A176
S1133AE053A164A175A193964D935D936D937C93BB
S1133AF0969782FF0AC0F301178E10A211A212A298
S1133B0019861A861B861C860FC00E94FD286987A9
S1133B107A878B879C870E949041D3015F966D932F
S1133B207D938D939C93929780913B0390913C035A
S1133B300E941E294B015C019B01AC010E940341C0
S1133B406D837E838F839887E0913B03F0913C03E0
S1133B50FE87ED87C2A0D3A0E4A0F5A0268837880D
S1133B60408C518CA20191010E94C53E88230CF027
S1133B7071C02D813E814F815885C201B1010E94DF
S1133B80EB3D29813A814B815C810E9403419B0179
S1133B90AC01C701B6010E94EB3DD30193966D932E
S1133BA07D938D939C93969720E030E0A9010E9429
S1133BB0C53E181684F122E0F301228BAD85BE8543
S1133BC05E96CD90DD90ED90FC909197A7019601C3
S1133BD0C701B6010E94EC3DED85FE8522A133A10B
S1133BE044A155A10E9403419B01AC01AD85BE8552
S1133BF056966D917D918D919C9159970E94EB3DC4
S1133C000E949041F301678F70A381A392A38181E5
S1133C1088608183E6C029853A854B855C856D8102
S1133C207E818F8198850E94EB3D29813A814B8169
S1133C305C810E940341D30197966D937D938D938C
S1133C409C939A97F301838E948EA58EB68E23E06F
S1133C50228BC7C029853A854B855C85C201B10199
S1133C600E94EB3D29813A814B815C810E94034192
S1133C70A70196010E94EC3D20E030E040E05FE3C4
S1133C800E9403411B012C0120E030E0A9010E94A5
S1133C90C84018160CF093C0A2019101C701B601E7
S1133CA00E94C84018160CF085C029853A854B85BA
S1133CB05C856D817E818F8198850E94EB3D298191
S1133CC03A814B815C810E9403419B01AC01D30189
S1133CD097966D937D938D939C939A97C201B101AE
S1133CE00E94C8401816D4F5F301838E948EA58ED5
S1133CF0B68EAD85BE8556962D903D904D905C90C8
S1133D005997A20191016D817E818F8198850E94CE
S1133D10C53E811104C021E0F301228B62C0A201DF
S1133D2091016D817E818F8198850E94EB3D29816F
S1133D303A814B815C810E9403419B01AC01D30118
S1133D4093966D917D918D919C9196970E94EB3DF8
S1133D50F30163A374A385A396A343C0D3019396ED
S1133D602D923D924D925C929697F30127A230A634
S1133D7041A652A6AD85BE855E96CD90DD90ED90B0
S1133D80FC909197A7019601C701B6010E94EC3DF2
S1133D90A20191010E94034129853A854B855C85E6
S1133DA00E94EC3D0E949041F301638F748F858FD4
S1133DB0968F17C0E2E0D3015296EC9312C0D30160
S1133DC093961D921D921D921C9296975F968D91CB
S1133DD09D910D90BC91A02DF301838F948FA58F9D
S1133DE0B68F80911A0C886080931A0CE09141037D
S1133DF02E2F30E03BAB2AABF901EE0FFF1FEE0F85
S1133E00FF1FEE0FFF1FEA59FC4FD3018C918483EF
S1133E10E0913B03F0913C03FB8FEA8FF2A1FAA7F8
S1133E20AA8DBB8D9396BC91BBA7EA8DFB8DF4A1A3
S1133E30FCA7AA8DBB8D9596BC91BDA7F3012685E1
S1133E403785408951896AA57BA58CA59B2F0E9443
S1133E50EB3D6AA37BA38CA39DA320E030E0A901E2
S1133E600E94C53E882324F41AA21BA21CA21DA2F0
S1133E70D3015B96BC91BE8BF301F48DFF8BD30110
S1133E805D96BC91B88FF301F68DF98FD3019396AB
S1133E90BC91BE8FF301F4A1FF8FD3019596BC9121
S1133EA0B8A3F301F6A1F9A3D3015796BC91B98342
S1133EB0F301F08DFD83D3015996BC91B987F301C9
S1133EC0F28DF98BD3019796BC91BEA3F301F0A5B3
S1133ED0FFA3D3019996BC91B8A7F301F2A5F9A762
S1133EE0D3015296BC91BD8FF301F389FA8BD301B0
S1133EF05496BC91BB8BF301F589FC8BD301569688
S1133F00BC91BD8BF301F78DFEA7D3019096BC91B4
S1133F10BFA7F301F1A1F8ABD3019296BC91B9AB61
S1133F202EA13FA148A559A56E8D7F8D88A199A189
S1133F300E94C53E811102C08AAD01C081E05AA42D
S1133F401BA50CA5EDA5EC8F0F2EFEE34F2EF02D37
S1133F500F2EF3EC3F2EF02D0F2EFEE22F2EF02D20
S1133F600F2EF9E3FF2EF02D812C912C54010F2EEE
S1133F70FEE3CF2EF02D0F2EF3ECDF2EF02D0F2EBF
S1133F80FEE2EF2EF02DF9E3FD878DAB2D8D2CAFE6
S1133F907FAA6EAA7C2C812F1E2DE52C5D2CC02EB1
S1133FA009E3FBAEFE2ED82E3CAD313009F40FC12F
S1133FB008F48FC0333009F048C1AA8DBB8D5E96DA
S1133FC02D913D914D915C919197642D732D822D8E
S1133FD09BAD0E9403416D877E878F87988B2E89C6
S1133FE03F89488D598D69817D81898599890E9490
S1133FF0EB3D9B01AC016D857E858F8598890E9480
S1134000C84088239CF12E8D3F8D48A159A16AA5F3
S11340107BA58CA59DA50E94EB3D9B01AC010E9454
S1134020EC3D6B017C0129813D81498559896E896B
S11340307F89888D998D0E94EC3D9B01AC01C7015D
S1134040B6010E94CC3E462E372E282E9BAFBE8949
S1134050B983EF89ED83F88DF987298D298BEE8C4F
S1134060DF8CC8A0F9A038AD3CAF80C120E030E0BF
S113407040E05FE36D857E858F8598890E940341CA
S11340809B01AC0169817D81898599890E94EB3D01
S1134090242D332D422D5BAD0E9403419B01AC01C5
S11340A06E2D7D2D8C2D9F2D0E94EB3DE62ED72E5F
S11340B0C82EF92E2D853E854F85588969817D81CD
S11340C0898599890E94EB3D69837D838987998BD2
S11340D04DC1AA8DBB8D5E962D913D914D915C9104
S11340E09197642D732D822D9BAD0E9403416D87A2
S11340F07E878F87988B20E030E040E05FE30E946A
S1134100034129813D81498559890E94EC3D242D33
S1134110332D422D5BAD0E9403419B01AC016E2DFA
S11341207D2D8C2D9F2D0E94EB3DE62ED72EC82E83
S1134130F92E262F372F482F592F6E8D7F8D88A16A
S113414099A10E94C84018169CF52E8D3F8D48A158
S113415059A16AA57BA58CA59DA50E94EB3D9B0159
S1134160AC010E94EC3D6B017C0129813D814985B4
S113417059896E897F89888D998D0E94EC3D9B01B8
S1134180AC01C701B6010E94CC3E462E372E282E24
S11341909BAFBE89B983EF89ED83F88DF987298DAB
S11341A0298B3DA93CAFEE8CDF8CC8A0F9A0DEC002
S11341B02D853E854F85588969817D8189859989B9
S11341C00E94EC3D69837D838987998BCFC02E89BA
S11341D03F89488D598D642D732D822D9BAD0E948E
S11341E003419B01AC016E2D7D2D8C2D9F2D0E94D2
S11341F0EB3D6D877C8F8D8F692E262F372F482FAF
S1134200592F6EA17FA188A599A50E94C8401816B0
S11342100CF0A8C02EA13FA148A559A56E2D7D2D57
S11342208C2D9F2D0E94EB3D2E893F89488D598D01
S11342300E94CC3E462E372E282E9BAFEEA0DFA048
S1134240C8A4F9A449AD4CAF91C0AA8DBB8D5E96AC
S11342502D913D914D915C919197642D732D822DFB
S11342609BAD0E9403416D877E878F87988B9B014E
S1134270AC0169817D81898599890E94C84018169D
S11342800CF03FC020E030E040E05FE36D857E85C8
S11342908F8598890E9403419B01AC0169817D81CE
S11342A0898599890E94EB3D242D332D422D5BADE8
S11342B00E9403419B01AC016E2D7D2D8C2D9F2D01
S11342C00E94EB3D6C8F7D8F8CAB692E2A893B89D4
S11342D04C895D890E94C84018169CF42D853E8542
S11342E04F85588969817D81898599890E94EB3D33
S11342F069837D838987998BEC8CDD8CCCA8F62C23
S113430035C02A893B894C895D896E2D7D2D8C2D84
S11343109F2D0E94EB3D9B01AC010E94EC3D6B0183
S11343207C012EA53FA548A959A969817D8189856C
S113433099890E94EC3D9B01AC01C701B6010E9422
S1134340CC3E462E372E282E9BAFBEA5B983EFA5B3
S1134350ED83F8A9F98729A9298BEA88DB88CC8819
S1134360FD8804C0ED84DC8CCD8CF62C242D332DFB
S1134370422D5BADC501B4010E94EC3D4B015C01D3
S11343809B01AC01672D752D812F902F0E94C84091
S113439018166CF4A5019401672D752D812F902FAB
S11343A00E94EB3D462E372E282E9BAF36C02AA105
S11343B03BA14CA15DA16E2D7D2D8C2D9F2D0E94C6
S11343C0C8401816A4F03CAD6EA87FA85E2C1D2D25
S11343D00C2DFC8ED30152963C9389819D81A98535
S11343E0B989F301878B908FA18FB28F37C02EE3E9
S11343F033EC4EE259E3672D752D812F902F0E94E7
S1134400EC3D762E572E182F092FA50194010E94FA
S1134410EB3D462E372E282E9BAF2A893B894C89AB
S11344205D896E2D7D2D8C2D9F2D0E94C840181600
S11344300CF4BACDFCADFD8F6EA87FA85E2C1D2DAB
S11344400C2DFC8ED3015296FC9389819D81A98504
S1134450B989F301878B908FA18FB28FE0913903D3
S1134460F0913A038189811199C180911A0C83FDDD
S1134470A5C118C00E947812D301D0969C938E9344
S11344809F970BC01092240C1092250C1092260CAE
S11344901092270CF30110AA17A680911A0C877F9B
S11344A080931A0C8AA99BA9880F991F880F991FBA
S11344B0880F991F9C012A593C4F1901D3019F96DB
S11344C08D919C91D097F901978386831A962D91AB
S11344D03D914D915C911D97652D712F802F9C8D81
S11344E00E94034169837A838B839C830E94B23E3A
S11344F06D837E838F839887D30116966D917D910A
S11345008D919C9119970E94B23E69877A878B8717
S11345109C872D813E814F8158850E94EB3D0E94EE
S1134520393F6B017C01F10171836083672B41F496
S113453080911A0C81FF04C0816080931A0C44C1DD
S1134540D30112962D913D914D915C911597C50122
S1134550B4010E94EC3D4B015C0129813A814B81FD
S11345605C8169857A858B859C850E94EB3D9B01E6
S1134570AC01C501B4010E94CC3E4B015C0120ECAE
S113458031EE44E65EE40E9403410E94B23E0E9482
S1134590393F603DB7E07B078105910560F4EAA9E6
S11345A0FBA9EE0FFF1FEE0FFF1FEE0FFF1FEA59CF
S11345B0FC4F15824DC0603AEFE07E0781059105FE
S11345C068F4EAA9FBA9EE0FFF1FEE0FFF1FEE0F21
S11345D0FF1FEA59FC4F21E025831FC060343FE1EF
S11345E073078105910568F4EAA9FBA9EE0FFF1F83
S11345F0EE0FFF1FEE0FFF1FEA59FC4F42E0458309
S11346000CC0EAA9FBA9EE0FFF1FEE0FFF1FEE0F70
S1134610FF1FEA59FC4F53E05583EAA9FBA9EE0FAB
S1134620FF1FEE0FFF1FEE0FFF1FEA59FC4F2581FE
S1134630022E04C096958795779567950A94D2F7CC
S1134640D60102C0AA0FBB1F2A95E2F7B183A0834B
S113465061157105B1E08B07910568F4EAA9FBA91E
S1134660EE0FFF1FEE0FFF1FEE0FFF1FEA59FC4F67
S1134670738362830EC0EAA9FBA9EE0FFF1FEE0F3E
S1134680FF1FEE0FFF1FEA59FC4F2FEF3FEF33835D
S1134690228380914003809341038F5F8A3019F015
S11346A08093400302C010924003E0913B03F091D9
S11346B03C03852D912FA02FBC8D82A393A3A4A38B
S11346C0B5A38D819E81AF81B885F30186839783DD
S11346D0A087B18729813A814B815C81BC01CD01DE
S11346E00E94EB3DA50194010E940341D30112965F
S11346F06D937D938D939C93159753962D913D9136
S11347004D915C915697652D712F802F9C8D0E9441
S1134710C53E811122C0452C2C8C20E030E0A9013B
S1134720642D712F802F922D0E94C840181634F4E6
S1134730E6E1FCE084818160848346C080911A0CA8
S113474082FF04C0816080931A0C3EC010923C0327
S113475010923B0325D5B1E0B8AF9091420380910C
S1134760400398132BC830C0EA8DFB8DC2A8D3A890
S1134770E4A8F5A8D3019B962D913D914D915C91B0
S11347809E9757966D917D918D919C915A970E9419
S11347900341A70196010E9403416CCEEA8DFB8D73
S11347A08189807309F46ECEDFCFAA8DBB8DD2963A
S11347B06D917D918D919C91D5975CCEEA8DFB8D09
S11347C08189807391F75ECEEC960FB6F894DEBFC4
S11347D00FBECDBFDF91CF911F910F91FF90EF904E
S11347E0DF90CF90BF90AF909F908F907F906F900D
S11347F05F904F903F902F9008958091160C8C7786
S113480049F060911F0370912003809121039091DE
S11348102203089560E070E0CB010895F999FECF7A
S113482092BD81BD81E08FBB80B50895F894F9995C
S1134830FECF92BD81BD81E08FBB80B58627962FC8
S1134840982359F06F3F29F060BD84E08FBBF99A3B
S11348500AC084E18FBBF99A06C0882321F060BDA9
S113486084E28FBBF99A789408958F929F92AF92C5
S1134870BF92CF92DF92EF92FF920F931F93CF9349
S1134880DF937C018B016A014115510501F15A0145
S1134890C0E0D1E001C0C401C11108C06C2FCC0F2D
S11348A0770BC72FCC1FCC27CC1F01C0CD2FF8010D
S11348B061918F01C60F4C01FFEF8F1A9F0AB6DF7B
S11348C021E0A21AB10839F7EC0CFD1C01C0C0E0CC
S11348D06C2FC701ABDFDF91CF911F910F91FF9038
S11348E0EF90DF90CF90BF90AF909F908F900895FE
S11348F08F929F92AF92BF92CF92DF92EF92FF92EC
S11349000F931F93CF93DF937B016A0141155105E8
S113491009F1C82FD92F5A01CB01912C88248394F3
S11349208C010F5F1F4F7ADF911008C0292D990C5D
S1134930330B232F221F2227221F01C0282D982E3C
S1134940920E899381E0A81AB108C80149F7EC0CCA
S1134950FD1C01C0912CC70161DF21E030E0891505
S113496011F020E030E0C901DF91CF911F910F9148
S1134970FF90EF90DF90CF90BF90AF909F908F907B
S113498008951F93CF93DF93182FEB010E9494187F
S113499021E031E0129FC001139F900D112440E0EB
S11349A051E0BE019D5F61DFDF91CF911F910895BA
S11349B040E051E0BC018EEA93E057CF08950F9395
S11349C01F93CF93C82F8B010E9494182DE0C29F90
S11349D0C00111244CE050E0B8019E5F46DFCF9146
S11349E01F910F9108956AE080E090E01FDF45E594
S11349F050E060EC7EE081E090E037CF08950F93C3
S1134A001F93CF93DF93CDB7DEB72C970FB6F894EF
S1134A10DEBF0FBECDBF082F80FF0AC085E5EAEEDA
S1134A20F2E0A0ECBEE005900D928A95E1F7DBDFA1
S1134A3001FF10C0FE0131968CE0DF011D928A95C2
S1134A40E9F710E0BE016F5F7F4F812FB8DF1F5F72
S1134A501830C1F702FF10C060E080E093E0E6DEAA
S1134A6060E081E093E0E2DE60E081E094E0DEDE9D
S1134A7060E082E094E0DADE03FF08C060E08EEAE2
S1134A8093E0D4DE60E08FEA93E0D0DE2C960FB69C
S1134A90F894DEBF0FBECDBFDF91CF911F910F9170
S1134AA008951F93CF93DF93182FEB0181E091E0DA
S1134AB0189FB001199F700D11247D5F40E051E0F3
S1134AC0CE0116DF892B31F41882BE01812F59DF04
S1134AD080E001C081E0DF91CF911F910895CF93D1
S1134AE0DF93EC0140E051E06EEA73E001DF892BD3
S1134AF029F41882CE015CDF80E001C081E0DF91FF
S1134B00CF9108951F93CF93DF93182FEB018DE07E
S1134B10189FB00111247E5F4CE050E0CE01E8DE26
S1134B20892B51F48CE0FE0111928A95E9F7BE01BC
S1134B30812F45DF80E001C081E0DF91CF911F919B
S1134B40089580E090E06ADE8A3061F445E550E043
S1134B5061E070E080EC9EE0CBDE21E0892B19F46B
S1134B6020E001C020E0822F0895CF92DF92EF92DF
S1134B70FF92CF93DF93C82F6A017B0120E030E0DE
S1134B80A901C701B6010E94C53E88230CF407C1E0
S1134B90C436A0F0ECE9EC0FE33020F0EA3008F082
S1134BA00CC1FFC0F0E0EE0FFF1FEE0FFF1FE0543B
S1134BB0F14FC082D182E282F382EEC0C701B60116
S1134BC00E94D1410E94393F8C2F90E0813291059F
S1134BD008F0E9C0FC018827ED5DFE4F8F4F0C946F
S1134BE01242633008F4E1C06093F00ED5C06093C4
S1134BF0F30ED2C06093F10E0E94011BCDC06093EE
S1134C00F20E0E94011BC8C0662331F0E5E0FFE00C
S1134C10808184608083C0C0E5E0FFE080818B7F79
S1134C208083BAC0662331F0E5E0FFE080818064D0
S1134C308083B2C0E5E0FFE080818F7B8083ACC0DD
S1134C40662331F0E5E0FFE080818068808305C061
S1134C50E5E0FFE080818F77808380E00E94443428
S1134C609BC06093F40E98C0C092F50ED092F60EDD
S1134C70E092F70EF092F80E8FC0C092F90ED09227
S1134C80FA0EE092FB0EF092FC0E86C0662331F021
S1134C90E5E0FFE080818160808305C0E5E0FFE01E
S1134CA080818E7F80830E94573A76C0662341F0CC
S1134CB08091050F84FF7BC080628093050F6CC0D8
S1134CC0E5E0FFE080818F7D808366C0662331F05C
S1134CD0E5E0FFE080818860808305C0E5E0FFE0D7
S1134CE08081877F80830E94AC2F56C0662331F079
S1134CF0E5E0FFE08081806180834EC0E5E0FFE075
S1134D0080818F7C808348C06093060F45C0C09229
S1134D10070FD092080FE092090FF0920A0F3CC0DF
S1134D20C0920B0FD0920C0FE0920D0FF0920E0F69
S1134D3033C0862F90E09093100F80930F0F2CC0F8
S1134D40C092110FD092120FE092130FF092140F31
S1134D5023C0C092FD0ED092FE0EE092FF0EF092A0
S1134D60000F0E942D1218C0C092010FD092020FA2
S1134D70E092030FF092040F0E942D120DC06623DF
S1134D8031F0E5E0FFE080818260808305C0E5E0EA
S1134D90FFE080818D7F808326DE80E058C084E040
S1134DA056C083E054C083E052C086E050C08AE01D
S1134DB04EC083E04CC083E04AC0E2E9EC0FE3302C
S1134DC070F0EA30B0F388E88C0F8330A0F08A30BA
S1134DD090F38EE78C0F833048F183E038C0F0E025
S1134DE0EE0FFF1FEE0FFF1FE453F14FC082D1827D
S1134DF0E282F382D1CFC82FD0E0CC0FDD1FCC0FDD
S1134E00DD1FC852D14F20E030E040E752E4C70133
S1134E10B6010E94034120E030E040E752E40E94E2
S1134E200341688379838A839B83B6CFE82FF0E0BC
S1134E30EE0FFF1FEE0FFF1FEC51F14FF7FAF09446
S1134E40F7F8F094C082D182E282F382A5CFDF9199
S1134E50CF91FF90EF90DF90CF90089572DE811193
S1134E6007C087E00E94C6348FEFC9DD0C94423539
S1134E700895882321F0813021F080E1089584E0B1
S1134E80089588E00895882321F0813021F080E29C
S1134E90089580E8089580E40895882321F08130FE
S1134EA021F080E4089580E1089580E208952F922E
S1134EB03F924F925F926F927F928F929F92AF92A6
S1134EC0BF92CF92DF92EF92FF920F931F93CF93F3
S1134ED0DF93C0917604C11101C0C4E2C150D091E6
S1134EE07404DC1709F436C10C2F10E026E3C29FCA
S1134EF0C0011124FC01E858FB4F6F01E28CF38CD4
S1134F00948C858C668D778D80A191A19B01AC01D9
S1134F100E94EC3DF60122A133A144A155A10E94B7
S1134F200341A62EB72EC82ED92E262F372F482F51
S1134F30592F6E2D7F2D892D982D0E94C53E8823D3
S1134F4024F0EA2CFB2C9C2C8D2C86E3809FF00112
S1134F50819FF00D1124E858FB4F8E2D9F2DA92D14
S1134F60B82D868B978BA08FB18FC11101C0C4E27D
S1134F70C150DC1307C080917704D8137CC00E9411
S1134F80941B79C026E3209FC001219F900D11241A
S1134F909C0128583B4F6901D6E3EC2EF12CDE9D91
S1134FA08001DF9D100D112408581B4FC11101C051
S1134FB0C4E2C150809177048C1302C00E94941BF8
S1134FC0DE9DF001DF9DF00D1124E858FB4F428C6B
S1134FD0538C648C758CA301920166897789808DCA
S1134FE0918D0E94C53E882309F440C0DE9DC00116
S1134FF0DF9D900D1124FC01E858FB4F5F01668D85
S1135000778D80A191A19B01AC010E94EC3DF5013B
S113501022A133A144A155A10E940341F60126898E
S11350203789408D518D0E94EC3D4B015C019B0101
S1135030AC01C301B2010E94C840181664F4DE9D9D
S1135040F001DF9DF00D1124E858FB4F868A978A02
S1135050A08EB18E0BC0DE9DF001DF9DF00D1124FA
S1135060E858FB4F468A578A608E718E680180919A
S113507074048C1392CF20907404F6E32F9EC00125
S113508011249C0128583B4F7901C1E0C20DC43260
S113509009F4C0E030907604D6E358C0CC2ED12C6D
S11350A0DC9D8001DD9D100D112408581B4FF70174
S11350B046885788608C718CF80186889788A08C04
S11350C0B18CA5019401C301B2010E94C53E88239D
S11350D024F5F701668D778D80A191A19B01AC0128
S11350E00E94EC3DF70122A133A144A155A10E94E5
S11350F00341A30192010E94EC3D2B013C019B0161
S1135100AC01C501B4010E94C840181634F4F8017A
S1135110468A578A608E718E2C2EDC9DF001DD9DAF
S1135120F00D1124E858FB4F228D338D448D558D9D
S113513066897789808D918D0E94C53E811101C059
S11351402C2ECF5FC43209F4C0E07801C311A6CF7E
S113515020927404DF91CF911F910F91FF90EF90F3
S1135160DF90CF90BF90AF909F908F907F906F9083
S11351705F904F903F902F90089510927704109273
S1135180760481E0809375041092740408958CE190
S1135190E8E5F4E0DF011D928A95E9F7EECF089582
S11351A08091770490917604981769F091E0980FB4
S11351B0943209F490E020917404821302C0909315
S11351C074049093770408958091760426E3829F73
S11351D0C001112488589B4F0895809177049091C1
S11351E07604981739F026E3829FC0011124885869
S11351F09B4F089580E090E00895E0917704EF5F7D
S1135200E43209F4E0E0809176048E1759F086E3E5
S1135210E89FF0011124E858FB4F66897789808D57
S1135220918D089560E070E0CB01089581E02091B4
S1135230770490917504291380E00895AF92BF928A
S1135240CF92DF92EF92FF920F931F93CF93DF934E
S1135250EC011EA5AFA4E8A809A9898980FF1AC09A
S113526060911E0C70E080E090E00E94673F2AE0AD
S113527037ED43E25CE30E9403419B01AC01612FE3
S11352807A2D8E2D902F0E940341162FA72EE82EE3
S1135290092F2FC082FD19C060911D0C70E080E0C1
S11352A090E00E94673F2AE037ED43E25CE30E940E
S11352B003419B01AC01612F7A2D8E2D902F0E940A
S11352C00341162FA72EE82E092FBAA4CBA4DCA4E1
S11352D0FDA42B2D3C2D4D2D5F2D612F7A2D8E2D70
S11352E0902F0E94C840181624F41B2DAC2CED2CD2
S11352F00F2D20E030E040E85FE3612F7A2D8E2D02
S1135300902F0E94C84018161CF4DA2DCE2D04C02C
S113531010E0D0E0C0E80FE3612F7D2F8C2F902F99
S1135320DF91CF911F910F91FF90EF90DF90CF907D
S1135330BF90AF9008955F926F927F928F929F92E9
S1135340AF92BF92CF92DF92EF92FF920F931F938F
S1135350CF93DF9310917704509076040F2EF9E9E0
S11353609F2EF02D0F2EF6E78F2EF02D0F2EF6E93F
S11353707F2EF02D0F2EFEE76F2EF02D0F2EF6E36D
S1135380CF2EF02D73C0C12FD0E0CC9EC001CD9E96
S1135390900D112488589B4F51DF062FF72EE82ECD
S11353A0D92E262F372F482F592F692D782D872D49
S11353B0962D0E94C53E8823CCF4CC9EC001CD9E80
S11353C0900D11249C0128583B4F5901292D382D4B
S11353D0472D562D692D782D872D962D0E9403413A
S11353E0F501628F738F848F958F18C0CC9EC00196
S11353F0CD9E900D11249C0128583B4F5901202F1C
S11354003F2D4E2D5D2D602F7F2D8E2D9D2D0E94C5
S11354100341F501628F738F848F958FCC9EF001C9
S1135420CD9EF00D1124E858FB4F86A097A0A0A4B0
S1135430B1A4A5019401628D738D848D958D0E9414
S1135440C84018165CF4CC9EF001CD9EF00D1124DA
S1135450E858FB4F828E938EA48EB58E1F5F143254
S113546009F410E0902E8F2C7E2C6D2C15118BCF0F
S1135470892D982DA72DB62D8093700490937104D7
S1135480A0937204B0937304DF91CF911F910F9195
S1135490FF90EF90DF90CF90BF90AF909F908F9050
S11354A07F906F905F9008952F923F924F925F92FA
S11354B06F927F928F929F92AF92BF92CF92DF9220
S11354C0EF92FF920F931F93CF93DF93CDB7DEB785
S11354D0C654D1090FB6F894DEBF0FBECDBF2396D4
S11354E07FAF6EAF239720907604A22CB12C26E3D5
S11354F02A9DA0012B9D500D1124BA0168587B4FA1
S113550021967FAF6EAF2197FB0111922A95E9F79F
S11355102396EEADFFAD23972485FB01218B2396C3
S1135520EEADFFAD23974481558166817781219645
S1135530EEADFFAD219742AB53AB64AB75AB239695
S1135540EEADFFAD23974085518562857385219625
S1135550EEADFFAD2197428B538B648B758B21FF8E
S11355600AC02CE0E7E3FCE0DE011D9601900D92F9
S11355702A95E1F765C22CE0E8E5F4E0DE011D962A
S113558001900D922A95E1F75BC2E9ADFAAD619104
S1135590719181919191FAAFE9AFEBADFCAD21919D
S11355A0319141915191FCAFEBAF2DAB3EAB4FAB81
S11355B058AF0E9403410E94D340F4016193719358
S11355C0819391934F01F6010191119121913191B0
S11355D06F01601B710B820B930B8B019C013AF4DE
S11355E0002711279801061B170B280B390BF10113
S11355F001931193219331931F01F701408051804E
S113560062807380401651066206730610F4280106
S11356103901F70140825182628273820E94673F9E
S11356202DA93EA94FA958AD0E94CC3EEDADFEADCB
S11356306193719381939193FEAFEDAF20E030E0DD
S1135640A9010E94C53E88234CF489A91CDC279635
S1135650EEADFFAD27979081892B8083F9A9FF5F79
S1135660F9ABF33009F091CF86E38A9DF0018B9D6D
S1135670F00D1124E858FB4F84859585A685B785E0
S1135680892B8A2B8B2B09F4D7C1CE0149968ED353
S113569026E32A9D80012B9D100D112408581B4FD1
S11356A0F80162A373A384A395A3BE01675E7F4F31
S11356B088ED9EE0E2D3F801668F778F80A391A3F3
S11356C0BE01675E7F4F8CEC9EE0D7D3F80162A7E2
S11356D073A784A795A7118910FF0DC026E32A9DFF
S11356E0F0012B9DF00D1124E858FB4F66A777A716
S11356F080AB91AB22C02396EEADFFAD2397208102
S113570031814281538186E38A9DF0018B9DF00DA6
S11357101124E858FB4F26A737A740AB51AB13FF22
S11357200CC07F0162A173A184A195A10E940341D1
S1135730F70166A777A780AB91AB9091760480912F
S11357407704981711F011FF11C086E38A9DF001C8
S11357508B9DF00D1124E858FB4F168A178A108E82
S1135760118E16A217A210A611A6D6C004E614E044
S11357701E01F5E22F0E311C410119AA1AAA1BAA17
S11357801CAAF801C190D190E190F1908F01259667
S1135790EEADFFAD259741905190619071902596A3
S11357A0FFAFEEAF2597A3019201C701B6010E9496
S11357B003419B01AC0169A97AA98BA99CA90E9408
S11357C0EB3D69AB7AAB8BAB9CABA7019601C301F4
S11357D0B2010E94EB3DF101619371938193919326
S11357E01F0125962EAD3FAD25972815390549F69D
S11357F02FEE3FEF4FE75FE369A97AA98BA99CA934
S11358000E94C84018166CF486E38A9DF0018B9DB3
S1135810F00D1124E858FB4F16A217A210A611A6EA
S11358207BC02FEE3FEF4FE75FEB69A97AA98BA905
S11358309CA90E94C53E88238CF486E38A9DF001CE
S11358408B9DF00D1124E858FB4F89E996E7A6E9F2
S1135850BEE786A397A3A0A7B1A75EC0CE01859695
S1135860A5D2BE016B5D7F4F88ED9EE006D36B0130
S11358707C0129A93AA94BA95CA960E070E080E801
S11358809FE30E94EB3D20E030E040E05FE30E94B4
S113589003410E9490412B013C012091F50E30916F
S11358A0F60E4091F70E5091F80EC701B6010E9412
S11358B00341A30192010E9403416B017C01A301F6
S11358C0920160E070E080E89FE30E94EB3D9B0161
S11358D0AC01C701B6010E94CC3EE62EF72E082F7C
S11358E0192F20E030E0A9010E94C53E882324F44A
S11358F0E12CF12C00E010E086E38A9DF0018B9D01
S1135900F00D1124E858FB4F4E2D5F2D602F712FA1
S113591046A357A360A771A786E38A9DF0018B9DD8
S1135920F00D1124E858FB4F818981FD87C0219631
S11359308EAD9FAD219782DC6B017C014090700499
S1135940509071046090720470907304A3019201EA
S11359500E94C8401816A4F486E38A9D80018B9D9A
S1135960100D112408581B4FA3019201C301B20169
S11359700E940341F801628F738F848F958F13C047
S113598086E38A9D80018B9D100D112408581B4FBE
S1135990A7019601C701B6010E940341F801628F75
S11359A0738F848F958F86E38A9DF0018B9DF00D14
S11359B01124E858FB4F46A057A060A471A4A3018A
S11359C09201628D738D848D958D0E94C840181646
S11359D064F486E38A9DF0018B9DF00D1124E85850
S11359E0FB4F428E538E648E758EC0927004D0929B
S11359F07104E0927204F09273048CE0FE017996D3
S1135A00A4E6B4E001900D928A95E1F78CE0FE01E2
S1135A103196A8E5B4E001900D928A95E1F7809162
S1135A207504809376048F5F843209F480E0809358
S1135A3075043DDA81E039C080E037C081E035C0CB
S1135A4089AF9AAF20EC3EE03CAF2BAFAE014F5F85
S1135A505F4F4A016E015DE0C50ED11C66E3269ED0
S1135A60C0011124FC01E858FB4F1F019E01275E71
S1135A703F4F25963FAF2EAF25973EAF2DAF10E099
S1135A8026E32A9DC0012B9D900D112488589B4F1D
S1135A907C013CE0E30EF11CAC01405F5F4F2796B4
S1135AA05FAF4EAF279719AB70CDCA5BDF4F0FB610
S1135AB0F894DEBF0FBECDBFDF91CF911F910F9140
S1135AC0FF90EF90DF90CF90BF90AF909F908F901A
S1135AD07F906F905F904F903F902F900895E7E3F1
S1135AE0FCE0A8E5B4E083E49CE04191519161912C
S1135AF071914D935D936D937D93E817F907A9F721
S1135B0008959091760480917704981718F08D5D2C
S1135B10891B08958150891B08950E94941B8091CC
S1135B20770480937404C3C908954F925F926F926F
S1135B307F928F929F92AF92BF92CF92DF92EF9219
S1135B40FF920F931F93CF93DF93DC01FB01C0817E
S1135B50D0E0FC01EC0FFD1F90819D3229F4EF0190
S1135B602296918101E00BC09B3229F02196CA0F45
S1135B70DB1F00E004C0EF012296918100E080E089
S1135B8020E010E0412C512C320131E0FE01905311
S1135B909A3010F52F5F2930D8F481111150530138
S1135BA04201880C991CAA1CBB1C880C991CAA1CB9
S1135BB0BB1C840C951CA61CB71C880C991CAA1C25
S1135BC0BB1C24013501490E511C611C711C09C008
S1135BD0811107C01F5F05C09E3F31F4811104C0CD
S1135BE0832F90812196D2CF222309F452C06A01D7
S1135BF07B015D01C301B2010E94653F2B013C01A1
S1135C0020E030E0A9010E94C53E882351F11F3FE6
S1135C106CF42AE037ED43E25CE3C301B2010E9475
S1135C2003412B013C011E5F1F3F9CF311235CF4D5
S1135C302DEC3CEC4CEC5DE3C301B2010E9403414A
S1135C402B013C010EC0111664F420E030E040E268
S1135C5051E4C301B2010E9403412B013C011150E4
S1135C60A1F7002351F077FA709477F87094F60155
S1135C70408251826282738205C0F6014082518261
S1135C8062827382CA19DB09C150F701C08381E0C3
S1135C9001C080E0DF91CF911F910F91FF90EF90B1
S1135CA0DF90CF90BF90AF909F908F907F906F9038
S1135CB05F904F900895FF920F931F93CF93DF93BC
S1135CC0F42E20E030E040EA51E40E9403410E94B7
S1135CD0B23E0E94393F6115710521F12091170CE4
S1135CE0211120C0EB0106E11CE005C02197F80159
