S01300004752424C2D4C2D4D6567612E73726563CA
S113000095C20000A6C20000A4C20000A2C2000063
S1130010A0C200009EC200009CC200009AC2000060
S113002098C200000C94A83094C200000C94893A41
S11300300C94C5308EC200008CC200008AC200003D
S113004088C200000C94851984C2000082C200009A
S113005080C200007EC200007CC200000C94831B9E
S113006078C200000C946F140C94331472C2000014
S113007070C200006EC200006CC200006AC20000C0
S113008068C2000066C2000064C200000C943D3ED9
S113009060C200005EC200005CC200005AC20000E0
S11300A058C2000056C2000054C2000052C20000F0
S11300B050C200004EC200004CC200004AC2000000
S11300C048C2000046C2000045C2000042C200000F
S11300D040C200003EC200003CC200003AC2000020
S11300E038C20000250825082508250806089D11A2
S11300F09D119D119D119D11FA079D119D119D1139
S11301009D119D119D114F084F084F0870087008EC
S11301109D119D119D119D119D119D11FA079D1118
S1130120FA079D119D119D119D119D119D119D1108
S113013025089D119B089D119D1176089D119D1107
S11301409D119D119D1176089D119D119D1106080B
S11301508F088F088F088F088F088F089D119508C6
S11301609D119D119D119D119D119D119D119D111B
S11301709D119D119D119D119D119D119D119D110B
S11301809D119D112B089D119D119D119D119D1176
S11301909D119D119D119D1155085508FA076A0876
S11301A06A08C608C608C608D508D508D508B71110
S11301B0EC08EC08EC08B711B711B711B711B71177
S11301C0B711B711B711B711B711B711B711B711EB
S11301D0B711B711B711B711B711B711B711C608D5
S11301E02C09BB11BB113609430950095D09BB1128
S11301F06109BB116F09BB11790983098D09BB1111
S1130200BB11BB119D09AA09B709B014B414BC14DD
S1130210131513151315131513151315131513159A
S11302201315C514C914CD14D114D514D914DD145F
S1130230E1141315E514E914ED14F114F514F9148B
S11302401315FD14011589268F26922697269C26C0
S1130250AA26B8266B276B276B27C926CC26D5265A
S1130260DE266B276B276B276B276B276B27EE2606
S1130270FE260E271C271F272827312738276B2700
S11302806B2741274C275727B035B435B835BC35D3
S1130290C035C435C835CC35D035D435D835084A01
S11302A0D73B3BCE016E84BCBFFDC12F3D6C743186
S11302B09ABD56833DDA3D00C77F11BED9E4BB4CDD
S11302C03E916BAAAABE000000803F05A84CCDB2A7
S11302D0D44EB93836A9020C50B9918688083CA688
S11302E0AAAA2ABE000000803F0000007A43000052
S11302F07A4300007A430000FA430000FA43000006
S1130300FA4300A00C4700A00C4700A00C470000D3
S113031048C3000048C3000048C30A000019010A8A
S1130320D7233C6F12033B00007A44000000000016
S1130330000000C8410000FA43FA000000803F7C3E
S113034053693A007C53703A007C413A007C4F7602
S11303503A007C57434F3A007C506E3A007C465337
S11303603A007C4C6E3A007C42663A007C57506FEF
S1130370733A007C4D506F733A00536C656570009E
S1130380446F6F723A00436865636B00416C61723D
S11303906D00486F6D65004A6F6700486F6C643A82
S11303A00052756E0049646C65005B4F50543A000E
S11303B05B5645523A312E31672E3230313830385F
S11303C031332E4D6567613A00244E00204D0020E4
S11303D0470020530020460020540033382E005B91
S11303E047433A47005B544C4F3A005B4739323A33
S11303F0003330003238005B47005B5052423A0011
S11304005B484C503A2424202423202447202449A8
S113041020244E2024783D76616C20244E783D6C57
S1130420696E6520244A3D6C696E652024534C50E6
S1130430202443202458202448207E2021203F20AB
S11304406374726C2D785D0D0A000D0A4772626C3C
S113045020312E3167205B27242720666F722068A5
S1130460656C705D0D0A00536C656570696E67009C
S1130470526573746F72696E67207370696E646C11
S11304806500526573746F72696E67206465666196
S1130490756C74730050676D20456E640043686525
S11304A0636B204C696D69747300436865636B20EA
S11304B0446F6F720044697361626C656400456ED9
S11304C061626C65640043617574696F6E3A2055AE
S11304D06E6C6F636B656400272448277C2724585F
S11304E02720746F20756E6C6F636B0052657365A3
S11304F07420746F20636F6E74696E7565005B4D54
S113050053473A007C53703A20007C53733A2000DE
S113051053693A2000414C41524D3A000D0A00659E
S113052072726F723A006F6B0D0A000011241FBEC5
S1130530CFEFD1E2DEBFCDBF00E00CBF2FE0A0E0E3
S1130540B2E001C01D92A732B207E1F757D00C9474
S1130550DA4256CD1F920F920FB60F9211248F9349
S11305609F93AF93BF938091100C9091110CA09125
S1130570120CB091130C0196A11DB11D8093100CA7
S11305809093110CA093120CB093130CBF91AF91E4
S11305909F918F910F900FBE0F901F901895E0E2DE
S11305A0F1E0108280818F708083E1E2F1E080814C
S11305B083608083E3E7F0E0808181608083109230
S11305C0100C1092110C1092120C1092130C08952E
S11305D020912401309125018091100C9091110CEF
S11305E0A091120CB091130CDC0199278827BC014F
S11305F0CD01620F731F811D911D08950E940A147D
S11306000E94C6270E940A1C0E945E3A8CE0E3E422
S1130610FCE0DF011D928A95E9F7789410921E0C94
S1130620CEE1DCE00F2EF2E1DF2EF02D14E60F2EEA
S1130630F7E3EF2EFCE0FF2EF02D0CE08881FE01A5
S11306409D2D11929A95E9F788831F83188719873E
S1130650D701E02F1D92EA95E9F71092320C10921F
S1130660310C1092530C1092190C1092300C109201
S1130670550C1092150C1092160C1092170C109227
S1130680180C0E94261503D40E94851288DF0E944C
S1130690C7130E9444300E94ED340E942B3E0E94F6
S11306A05F290E94D91B0E94072E03D40E94DE35C5
S11306B00E947918C3CFEF92FF920F931F93CF93A9
S11306C0DF938C017B018091150F85FF07C080911A
S11306D01E0C803239F0C8010E94183380911E0C20
S11306E0823019F1CEE1DCE00E9464178981811126
S11306F01CC00E94AE29882319F00E942B15F4CF48
S1130700B701C8010E94EC2A81110FC08091150F16
S113071081FF0BC0F701848584FF07C044815581A4
S11307206681778180E10E949B13DF91CF911F91B5
S11307300F91FF90EF9008952F923F924F925F9206
S11307406F927F928F929F92AF92BF92CF92DF92DD
S1130750EF92FF920F931F93CF93DF93CDB7DEB742
S1130760E2970FB6F894DEBF0FBECDBF9AAB89AB4C
S1130770788B6F875E874D873901ED82FE820F8308
S11307801887898AD12CCC0CDD1CCC0CDD1CCA0149
S11307908C0D9D1D9E8B8D8BD901AC0DBD1DBEA7EF
S11307A0ADA72D903D904D905C90FC01208131814E
S11307B042815381C201B1010E94903E6F8B788FB8
S11307C0898F9A8F0A2D10E0000F111F000F111F3F
S11307D08D859E85800F911F9C8F8B8FD301A00FD9
S11307E0B11FB8ABAFA78D909D90AD90BC90FC01AC
S11307F02081318142815381C501B4010E94903E20
S11308006D8F7E8F8F8F98A3D201C101B0588983D9
S11308109A83AB83BC83D501C401B05889879A8776
S1130820AB87BC87E9A9FAA9EC0DFD1D2F89388D8A
S1130830498D5A8D60817181828193810E948F3E9E
S11308406B017C01E9A9FAA9E00FF11F2D8D3E8D02
S11308504F8D58A160817181828193810E948F3E66
S11308604B015C01A701960169817A818B819C818E
S11308700E94A7412B013C01A501940169857A8559
S11308808B859C850E94A7419B01AC01C301B201E9
S11308900E94903E2B013C01A501940169817A815B
S11308A08B819C810E94A7414B015C01A7019601A9
S11308B069857A858B859C850E94A7419B01AC0143
S11308C0C501B4010E948F3EA30192010E94033F1F
S11308D04B015C0129968FAD29978823A9F02DEB54
S11308E037E346E055EBC501B4010E946C4188230F
S11308F0FCF02BED3FE049EC50E4C501B4010E944B
S11309008F3E4B015C0114C02DEB37E346E055E309
S1130910C501B4010E94693F181654F02BED3FE065
S113092049EC50E4C501B4010E94903E4B015C01C6
S1130930C090090FD0900A0FE0900B0FF0900C0FAD
S11309402D813E814F815885CA01B9010E94903E94
S11309502B013C01A7019601C301B2010E948F3E05
S1130960A70196010E94A7410E9434426B017C01B9
S113097020E030E040E05FE3C501B4010E94A741FC
S11309802D813E814F8158850E94A7419F77A70101
S113099096010E94703F0E9446400E94DD3F6B0119
S11309A07C013B016115710509F487C1AF85B889E4
S11309B01C961C9113FF18C080E090E00E9409402F
S11309C09B01AC01EF85F8896081718182819381FB
S11309D00E94A741AF85B8896D937D938D939C93B5
S11309E01397177F1C961C93B60180E090E00E9439
S11309F009406B017C019B01AC01C501B4010E945B
S1130A00703F69A77AA78BA79CA7B9898B2E912CD5
S1130A10880C991C880C991C4D845E84480C591CC4
S1130A20E9A9FAA9E80DF91DD2012D913D914D9145
S1130A305C9160817181828193810E948F3EA701C4
S1130A4096010E94703F698B7A8B8B8B9C8B29A5B6
S1130A503AA54BA55CA5CA01B9010E94A7419B0117
S1130A60AC0160E070E080E090E40E948F3E6B0196
S1130A707C012BEA3AEA4AE25EE369A57AA58BA5F2
S1130A809CA50E94A7414B015C0120E030E040E8B6
S1130A9050E4C701B6010E94903E9B01AC01C50120
S1130AA0B4010E94A74169A37AA38BA39CA320E06D
S1130AB030E040E05FE3C701B6010E94A7416DA3A7
S1130AC07EA38FA398A7B2E06B16710408F4F5C057
S1130AD010E022242394312CC984DA84EB84FC842E
S1130AE01C3008F044C0A70196016DA17EA18FA11E
S1130AF098A50E94A7414B015C0129813A814B8151
S1130B005C8169A17AA18BA19CA10E94A741A50146
S1130B1094010E94903E962EA72EB82E092F29816B
S1130B203A814B815C816DA17EA18FA198A50E9421
S1130B30A74169837A838B839C83A701960169A16A
S1130B407AA18BA19CA10E94A7419B01AC01698160
S1130B507A818B819C810E948F3E69837A838B8307
S1130B609C831F5FC92CDA2CEB2CF02E66C0B101DC
S1130B7080E090E00E94094029A53AA54BA55CA518
S1130B800E94A7416B017C010E946D3F6D837E83AF
S1130B908F839887C701B6010E942A4269877A87A2
S1130BA08B879C87EDA5FEA5C080D180E280F38071
S1130BB0F7FAF094F7F8F094AFA5B8A98D909D904A
S1130BC0AD90BC90A70196016D817E818F8198853F
S1130BD00E94A74169837A838B839C83A501940136
S1130BE069857A858B859C850E94A7419B01AC0110
S1130BF069817A818B819C810E94903E69837A838A
S1130C008B839C83A701960169857A858B859C8556
S1130C100E94A7416B017C01A50194016D817E8135
S1130C208F8198850E94A7419B01AC01C701B60141
S1130C300E948F3E6B017C0110E02F89388D498D15
S1130C405A8D69817A818B819C810E94903EED89C5
S1130C50FE8960837183828393832D8D3E8D4F8DB6
S1130C6058A1C701B6010E94903EAB8DBC8D6D9317
S1130C707D938D939C93139729893A894B895C8939
S1130C80F20160817181828193810E94903ED20140
S1130C906D937D938D939C9313976F8578898D8540
S1130CA09E8509DD80911F0C81110CC0BFEF2B1AAA
S1130CB03B0A6214730409F013CF6F85788989A9FC
S1130CC09AA9F9DCE2960FB6F894DEBF0FBECDBF49
S1130CD0DF91CF911F910F91FF90EF90DF90CF9014
S1130CE0BF90AF909F908F907F906F905F904F9048
S1130CF03F902F900895CF92DF92EF92FF92209130
S1130D001E0C223049F06B017C010E942C1940E03A
S1130D10C701B6010E94F32EFF90EF90DF90CF90B1
S1130D200895CF93C82F0E943930CC2321F08C2F03
S1130D300E94003106C081E00E94003184E00E94DC
S1130D4000310E94641780911F0C811105C0B1D03D
S1130D500E94072E0E944430CF910895DF92EF92B3
S1130D60FF920F931F93CF93DF9320911E0C223099
S1130D7009F45CC0D42E7B018C010E942C19809153
S1130D801F0C811155C01092230CD3FA882780F9C7
S1130D900E94DC340E94FA34882351F084E00E94DB
S1130DA0013E0E94641780E00E94DC3482E043C06C
S1130DB0B701C80180DC81E08093320C82E00E949C
S1130DC0993BCEE1DCE00E9464178981811132C035
S1130DD088818111F8CF8091320C813081F4D4FE66
S1130DE00AC08CE0E3E4FCE0A7E3BCE001900D92D0
S1130DF08A95E1F707C085E00E94013E03C081E0C7
S1130E008093230C1092320C80E00E94DC340E9408
S1130E1064170E94D91B0E945F290E94072E81E05B
S1130E209091230C911107C080E005C080E003C0BD
S1130E3082E001C082E0DF91CF911F910F91FF907A
S1130E40EF90DF9008958091310C84FD1FC080E104
S1130E500E94993B0E947A120E94BE1380911E0C3C
S1130E60982F9C7221F49091220C967079F0843022
S1130E7041F48091530C811107C086E00E94013E29
S1130E8003C083E00E94013E0C945719089580E446
S1130E90E6E5FCE0DF011D928A95E9F76AE77CE06C
S1130EA080E00E941A26811103C087E00C945E350D
S1130EB0089563E47CE08EE69CE00C941A3B08956C
S1130EC02F923F924F925F926F927F928F929F9256
S1130ED0AF92BF92CF92DF92EF92FF920F931F9344
S1130EE0CF93DF93CDB7DEB7E1970FB6F894DEBFAB
S1130EF00FBECDBF8C018AE3E6E9FCE0DF011D9261
S1130F008A95E9F78BE0E6E5FCE0A7E9BCE001900F
S1130F100D928A95E1F7F8018081843211F00C94E6
S1130F200712E6E9FCE081E08183128283E0898391
S1130F30F1E0FCA3212C312CE12CF12C1BA219A2F1
S1130F401AA2CC24C394D12C0F2EF1E68F2EF3E0F9
S1130F509F2EF02D18A30F8F37C29FEB910F9A315C
S1130F6010F00C9499118F5F8983AE014E5F5F4F2F
S1130F70BE016F5F7F4F8F8D98A10E942D2E882315
S1130F8011F40C949B114A805B806C807D80C301BA
S1130F90B2010E9475420E94DD3FA62E70E080E0FF
S1130FA090E00E940B409B01AC01C301B2010E947E
S1130FB08F3E20E030E048EC52E40E94A7410E94BA
S1130FC00A420E94DD3F862F972F9C01173421F09F
S1130FD01D3409F4C9C030C18A2D90E08F359105C4
S1130FE010F00C949D11FC018827EE58FF4F8F4F91
S1130FF00C94B6422115310511F00C940B124AA140
S1131000442311F40C9413120C949F11A6E9BCE030
S1131010AC92BCE1AB1631F0EEE1AE1619F0FCE592
S1131020AF128BC02115310551F02A30310539F04A
S11310300C94A11121E02AA302C031E03AA36A0D65
S1131040A6E9BCE06C9380E07FC0BAA1B1110C9416
S1131050A311E2E0EAA3A092970CF6E2AF126FC0EC
S11310602431310559F02E31310541F02832310552
S113107029F02233310511F00C94A511262F372FB6
S1131080ADECBCEC0E94BE429695879596958795EB
S11310909695879586578093970C81E055C06FEE9F
S11310A06A0D60939B0C82E04BC02115310531F42D
S11310B066EA6A0D60939A0C83E046C02A303105D3
S11310C011F00C94A7112AE5A21611F40C94A9119D
S11310D084E03AC08EE58A198093980C85E030C08C
S11310E085E18A198093990C86E02AC04AA14111AE
S11310F00C94AB1181E3A81206C010929C0C88E0FA
S113110093E09AA321C02A30310511F00C94AD115B
S1131110A1E0A0939C0C88E0B3E0BAA315C06AECEC
S11311206A0D60939D0C89E00BC0232B11F00C9485
S1131130AF118AE009C087E003C080E001C081E00C
S1131140232B11F00C94B111F60102C0EE0FFF1F16
S11311508A95E2F797012E233F23232B11F00C9459
S1131160B311EE2AFF2A30C1232B11F00C94B511D0
S11311708A2D90E08F31910510F00C94B711FC0189
S11311808827EF52FF4F8F4F0C94B642AA2021F0CC
S1131190F1E0AF16E1F105C023E020939E0C8BE053
S11311A03BC0A0929E0C8BE037C034E0A31659F0EC
S11311B045E0A41669F083E0A8122BC080E1809377
S11311C0A00C8CE029C080E28093A00C8CE024C0A9
S11311D01092A00C8CE020C098E0A91669F0A9E058
S11311E0AA1689F0B7E0AB1216C080919F0C8068F4
S11311F080939F0C8DE010C080919F0C806480933D
S11312009F0C8DE009C010929F0C8DE005C08BE00F
S113121003C08CE001C08DE0F60102C0EE0FFF1F99
S11312208A95E2F797012E233F23232B11F00C9488
S1131230B911EE2AFF2AC8C0812F90E0FC01E654C0
S1131240F109E531F10510F00C94BB118827E05148
S1131250FF4F8F4F0C94B6424092A20C5092A30CB5
S11312606092A40C7092A50C80E08DC04092A60CF4
S11312705092A70C6092A80C7092A90CFBA1F1608B
S1131280FBA381E080C04092AA0C5092AB0C609208
S1131290AC0C7092AD0C2BA122602BA382E073C026
S11312A04092AE0C5092AF0C6092B00C7092B10CA4
S11312B03BA134603BA383E066C0A092B20C84E0FF
S11312C062C0C301B2010E94D83F6093B30C709313
S11312D0B40C8093B50C9093B60C85E054C0409246
S11312E0B70C5092B80C6092B90C7092BA0C86E0AC
S11312F04AC04092BB0C5092BC0C6092BD0C7092E0
S1131300BE0C87E040C04092BF0C5092C00C60926B
S1131310C10C7092C20C88E036C020E030E04FE788
S113132053E4C301B2010E946C41181614F40C94E6
S1131330BD11A092C30C89E026C04092C40C509207
S1131340C50C6092C60C7092C70C49A1416049A3B8
S11313508AE019C04092C80C5092C90C6092CA0C21
S11313607092CB0C89A1826089A38BE00CC040925F
S1131370CC0C5092CD0C6092CE0C7092CF0C99A1F3
S1131380946099A38CE05601082E02C0AA0CBB1CE1
S11313900A94E2F791012A213B21232B09F0EFC79C
S11313A0D40102C0B595A7958A95E2F7A0FF0AC0BB
S11313B020E030E0A901C301B2010E94693F882303
S11313C00CF4DFC72A283B288981EF8DF8A1E80FA8
S11313D0F11D10811111C1CDB9A1BB2329F0EAA1DE
S11313E0E11102C0F2E0FAA325FE0EC08091B30C15
S11313F09091B40CA091B50CB091B60C813896497B
S1131400A849B1050CF0BFC73CA13323E1F020FE8D
S1131410BCC78091990C813009F054C006E91CE0E6
S113142023E333E34BEC51E4D8011C966D917D9199
S11314308D919C911F970E94A741F801648775873D
S1131440868797873FC08091980C813061F4FAA118
S1131450F230C1F58091970C8035A1F1882391F188
S113146020FE95C72FC08091570C81112BC020FE00
S113147019C08091990C813029F506E91CE023E319
S113148033E34BEC51E4D8011C966D917D918D9121
S11314909C911F970E94A741F801648775878687EE
S11314A0978710C08091650C9091660CA091670C91
S11314B0B091680C8093A20C9093A30CA093A40CFD
S11314C0B093A50C30FC10C08091610C9091620C1B
S11314D0A091630CB091640C8093BF0C9093C00CEA
S11314E0A093C10CB093C20C8091960C843021F46B
S11314F026FE4FC7E89426F880919B0C882349F078
S1131500813009F498C71FA6F2E0FEA321E02DA3C1
S113151097C78091990C8130A1F532E03FA741E053
S11315204EA31DA20F2EF6E9AF2EFCE0BF2EF02D28
S113153000E010E089A1C82ED12CC601002E02C003
S1131540959587950A94E2F780FF12C023E333E36D
S11315504BEC51E4D5019E966D917D918D919C91BA
S1131560D1970E94A741F50166A777A780AB91ABFD
S11315700F5F1F4FF4E0AF0EB11C03301105E9F605
S113158005C022E02FA731E03EA31DA24AA14330AB
S113159041F480919C0C813021F489A1843009F0BC
S11315A0FAC68CE0EAE7FCE0DE01169601900D92A3
S11315B08A95E1F7F1FE11C080919D0C873008F007
S11315C0ECC690915C0C891741F0BE016A5F7F4FB5
S11315D00E941A26882309F4E2C6B090960C9AE079
S11315E0B91629F0ACE5BA1609F49AC00EC1B9A12E
S11315F0BB2309F4D6C6C10180759927892B09F448
S1131600D2C66091B70C7091B80C8091B90C9091CE
S1131610BA0C0E9475420E94DD3F673008F0C5C6CF
S11316208091B20C843129F0823009F0C0C627FCC5
S1131630C0C6EFEA2E22662319F061506F8F03C0F3
S1131640F0919D0CFF8F66EA7CE08F8D0E941A2634
S1131650882309F4B0C62091B20C2FA34090920CB9
S11316605090930C6090940C7090950C06E91CE0DB
S11316700F2EF6E5CF2EFCE0DF2EF02DA12CB12CA1
S113168039A1832E912CC4010A2C02C0959587950B
S11316900A94E2F780FF36C04FA1443151F5D601D8
S11316A0D0962D913D914D915C91D39758966D9123
S11316B07D918D919C915B970E948F3EF80126A5A8
S11316C037A540A951A90E948F3ED80150966D9329
S11316D07D938D939C935397B2E0AB1213C0A301F7
S11316E092010E948F3EF801608B718B828B938BE9
S11316F009C0F80186A597A5A0A9B1A9808B918BF3
S1131700A28BB38BFFEFAF1ABF0A0C5F1F4F24E00D
S1131710C20ED11C33E0A316B10409F0B4CFA2C6A3
S113172049A1442309F449C60F2EF6E5AF2EFCE087
S1131730BF2EF02D4E0186E0880E911C06E91CE0B8
S1131740C12CD12C642E712CC3010C2C02C0959594
S113175087950A94E2F780FF3CC0D4012D913D9116
S11317604D915C91F501608D718D828D938D0E94F8
S11317708F3ED8019E962D913D914D915C91D197CC
S11317800E948F3EF80166A777A780AB91ABF2E089
S1131790CF1229C08601000F111F000F111F0A5616
S11317A0134F2091920C3091930C4091940C5091D2
S11317B0950C0E948F3ED8019E966D937D938D93D8
S11317C09C93D1971091970C103509F4F8C51F8E8E
S11317D0F8C0F50180A991A9A2A9B3A9F80186A727
S11317E097A7A0ABB1ABFFEFCF1ADF0A24E0A20E9C
S11317F0B11C34E0830E911C0C5F1F4F43E0C416F0
S1131800D10409F0A1CF1F8E2DC68AA1833009F41B
S113181090C099A1992309F48CC0A0909A0C0F2E22
S1131820F6E5CF2EFCE0DF2EF02D06E91CE03E01AC
S1131830A6E06A0E711C812C912C492E512C98A281
S11318408F8EC201082C02C0959587950A94E2F701
S113185080FD0BC0F601808D918DA28DB38DF801B2
S113186086A797A7A0ABB1AB54C0F5E3BF1609F4A4
S113187050C0A1103BC0D601D0962D913D914D9101
S11318805C91D397F30160817181828193810E947D
S1131890903ED8019E962D913D914D915C91D197AA
S11318A00E94903E9B01AC01F80166A777A780AB2C
S11318B091ABF2E08F122DC00F8D18A1000F111FF4
S11318C0000F111F0A56134F6091920C7091930CE4
S11318D08091940C9091950C0E94903ED8019E9614
S11318E06D937D938D939C93D19723C0F601208DA6
S11318F0318D428D538DD8019E966D917D918D9140
S11319009C91D1970E94903EF80166A777A780AB7F
S113191091ABFFEF8F1A9F0A24E0C20ED11C0C5F1B
S11319201F4F34E0630E711C43E08416910409F0E8
S113193086CF8EE1B81631F095E3B91699F1ACE192
S1131940BA1235C0BCE1BB1209C066EA7CE086E08D
S11319500E941A26882309F434C578C566EA7CE017
S113196087E00E941A26882309F42DC56FC5A901B2
S1131970082E02C0559547950A94E2F740FD0AC027
S113198058964D915D916D917C915B97408B518BF5
S1131990628B738B0196149634968330910539F7D4
S11319A01F8E60C58091970C823008F00EC510918F
S11319B0970C103529F4E9A1E11109C51F8E46C21F
S11319C01F8EFAA1F23009F041C2111105C029A1FC
S11319D021113CC21AA23AC220E030E0A901609170
S11319E0A20C7091A30C8091A40C9091A50C0E9460
S11319F0693F882309F4EDC41C3809F40FC240F48C
S1131A001230A1F01330A9F0113009F01FC209C03F
S1131A101E3809F403C208F4FEC11F3809F4FBC1DF
S1131A2015C239A1311112C21AA210C24CA14460CC
S1131A304CA389A1882309F4CEC4BDA1AB2FB0E087
S1131A40B9ABA8ABEEA1CE2ED12C81E090E08C01F5
S1131A500DA002C0000F111F0A94E2F702C0880F04
S1131A60991FEA95E2F7082B192BF9A18F2F90E023
S1131A7080239123892B09F4B0C4FD01EE0FFF1FCD
S1131A80EE0FFF1FEA56F34FAA0FBB1FAA0FBB1F8F
S1131A90A259B34F2D913D914D915C9166A577A5C7
S1131AA080A991A90E948F3E6FA378A789A79AA7BE
S1131AB0F601EE0FFF1FEE0FFF1FEA56F34FD6019C
S1131AC0AA0FBB1FAA0FBB1FA259B34F2D913D9163
S1131AD04D915C9166A577A580A991A90E948F3E3E
S1131AE06BA77CA78DA79EA727FEEAC0E89427F8DA
S1131AF04CE050E064EC7CE08EE69CE00E94CD4239
S1131B00892B09F46CC48091990C8130A1F406E905
S1131B101CE023E333E34BEC51E4D80195966D913B
S1131B207D918D919C9198970E94A741F80165A39E
S1131B3076A387A390A78090BB0C9090BC0CA09038
S1131B40BD0CB090BE0C20E030E040E850E4C5018C
S1131B50B4010E94A741A50194010E94A7414B0131
S1131B605C012FA138A549A55AA5CA01B9010E9453
S1131B70A7419B01AC01C501B4010E948F3E4B01FA
S1131B805C012BA53CA54DA55EA5CA01B9010E9427
S1131B90A7419B01AC01C501B4010E948F3E4B01DA
S1131BA05C0120E030E0A9010E94693F88230CF425
S1131BB018C4C501B4010E9434424B015C012BA539
S1131BC03CA54DA55EA56FA178A589A59AA50E94FF
S1131BD03B2F9B01AC01C501B40190580E94703F9A
S1131BE04B015C018091970C833021F4B7FAB094D7
S1131BF0B7F8B0944090BB0C5090BC0C6090BD0CF6
S1131C007090BE0C20E030E0A901C301B2010E9433
S1131C10693F882384F4B7FAB094B7F8B09477FA9C
S1131C20709477F870944092BB0C5092BC0C609204
S1131C30BD0C7092BE0C08A919A9000F111F000F4A
S1131C40111F0A55134F2BA53CA54DA55EA5C50133
S1131C50B4010E94A7419B01AC016FA178A589A59D
S1131C609AA50E948F3E20E030E040E05FE30E94AE
S1131C70A741D8016D937D938D939C93139786010F
S1131C80000F111F000F111F0A55134F2FA138A564
S1131C9049A55AA5C501B4010E94A7412BA53CA59D
S1131CA04DA55EA50E94903E20E030E040E05FE359
S1131CB00E94A741F8016083718382839383C6C025
S1131CC0FBA18F2E912C08211921012B09F48BC320
S1131CD021EF22228091990C813041F506E91CE024
S1131CE0A12CB12CC4010A2C02C0959587950A94A5
S1131CF0E2F780FF12C023E333E34BEC51E4D80155
S1131D0050966D917D918D919C9153970E94A7411E
S1131D10F801608B718B828B938BFFEFAF1ABF0A34
S1131D200C5F1F4F23E0A216B104E1F6C601880F31
S1131D30991F880F991FDC01AA55B34F6D012D918E
S1131D403D914D915C916BA57CA58DA59EA50E94AE
S1131D508F3E4B015C0108A919A9000F111F000F48
S1131D60111F0A55134FF80120813181428153819B
S1131D706FA178A589A59AA50E948F3EA50194011B
S1131D800E943B2F4B015C01D6012D913D914D9159
S1131D905C91F80160817181828193810E943B2F63
S1131DA02B013C016093BB0C7093BC0C8093BD0C65
S1131DB09093BE0C9B01AC01C501B4010E948F3EFF
S1131DC04B015C01E894B7F82AE037ED43EA5BE3A2
S1131DD0C501B4010E946C411816C4F520E030E03E
S1131DE040E05FE3C501B4010E946C4118160CF495
S1131DF0FCC22FE632E143E85AE3C301B2010E9478
S1131E00A7419B01AC01C501B4010E946C411816A5
S1131E100CF4EDC21BC0FCA1F061FCA31E581230EF
S1131E2018F42CA128602CA339A1332309F4E1C2AE
S1131E304CE050E064EC7CE08EE69CE00E94CD42F5
S1131E40892B09F4D8C202C01F8E1AA24CA141707A
S1131E50D42E8CA180FF03C0C1018E7D03C0C101BB
S1131E608E7D9C7FAAA1A111937E892B09F0C5C206
S1131E70FE0172968DE0DF011D928A95E9F7DD205F
S1131E8059F1B6EBEB22EF2809F0B9C28091960C18
S1131E90853311F08111B5C2E6E5FCE083859485B4
S1131EA0A585B6858E8B9F8BA88FB98F91858085EC
S1131EB0892B8E8F66E97CE0CE0142960E944E3ECD
S1131EC08111EDC29CE0E4ECFCE0AEE6BCE00190E4
S1131ED00D929A95E1F7E3C28091150F81FF26C018
S1131EE08091970C8150833018F0ECA1E064ECA34E
S1131EF0F9A1FF2339F02AA1223021F43CA1306852
S1131F003CA314C080915F0C803181F48091560C05
S1131F108150833030F44CA146FF08C040624CA38A
S1131F2005C08CA186FD02C080628CA3A6E9BCE03A
S1131F305D964D915D916D917C919097E6E5FCE005
S1131F40448B558B668B778B4A8F5B8F6C8F7D8F21
S1131F5012968C918183882311F088E08E8FA6E9F4
S1131F60BCE01C964D915D916D917C911F97E6E5C7
S1131F70FCE04787508B618B728B4A8B5B8B6C8B3D
S1131F807D8B99968D909D90AD90BC909C97A5016A
S1131F90940163857485858596850E94693F8111C6
S1131FA003C09CA195FF21C080915F0C882369F038
S1131FB0ACA1AA2354F0A6FF05C040E050E0BA014A
S1131FC0BAD303C0B501A401B6D38091BF0C9091DC
S1131FD0C00CA091C10CB091C20C8093610C909381
S1131FE0620CA093630CB093640CBCA1B6FD0CC04E
S1131FF08091610C9091620CA091630CB091640C7F
S11320008E8B9F8BA88FB98FE6E5FCE0A6E9BCE038
S11320109D968C919D97838B1A968C919185981798
S113202049F04E895F89688D798D85D38091A00CA4
S113203080935F0CE6E5FCE09E8D8185892B8E8F75
S113204080919F0C9085981729F0CCD380919F0C98
S113205080935E0C9E8D80915E0C892B8E8F809177
S1132060960C843051F46091B70C7091B80C809147
S1132070B90C9091BA0C0E947B06E6E5FCE0A6E957
S1132080BCE015968C911597848313968C9182836A
S1132090EAA1E33071F580919C0C80935B0C811173
S11320A008C01092CC0C1092CD0C1092CE0C109251
S11320B0CF0C8090CC0C9090CD0CA090CE0CB09016
S11320C0CF0CA50194016091920C7091930C8091B6
S11320D0940C9091950C0E94693F882351F0809252
S11320E0920C9092930CA092940CB092950C0E9436
S11320F0FB3A80919D0C90915C0C981769F0809349
S11321005C0C8CE0FE013696AAE7BCE001900D92CF
S11321108A95E1F70E94FB3AE6E9FCE0848180932A
S1132120590C8081863209F446C038F48C3129F187
S11321308E3119F18A3059F05FC08C3509F447C0EB
S1132140863609F450C0883209F056C03AC066EAAF
S11321507CE08F8D0E94772580915C0CFF8D8F131E
S11321604BC08CE0E6EAFCE0AAE7BCE001900D92EB
S11321708A95E1F70E94FB3A3FC08E8D81608E8F75
S11321802AA1222339F0BE016E5E7F4F84EC9CE0CD
S11321900E945B03BE016E5E7F4F86EA9CE00E9454
S11321A05B038CE0E6EAFCE0AEE6BCE001900D9255
S11321B08A95E1F721C06EE67CE086E00E947725EF
S11321C01BC06EE67CE087E00E94772515C08CE09A
S11321D0E4ECFCE0A6E8BCE001900D928A95E1F7FE
S11321E00E94FB3A09C08CE0E6E8FCE0DF011D92A6
S11321F08A95E9F70E94FB3A8091970C8093560CDC
S1132200803509F456C0BAA1B23009F052C0813009
S113221041F4BE016E5E7F4F84EC9CE00E945B0340
S11322203AC081110BC08E8D81608E8FBE016E5EAF
S11322307F4F84EC9CE00E945B032DC0825082306F
S1132240E8F4E090BB0CF090BC0C0091BD0C109134
S1132250BE0CECA1E2FB882780F98F938FA4AEA07B
S1132260CDA026EA3CE04EE65CE0BE016E5E7F4F08
S113227084EC9CE00E949C030F900DC08E8D8460C2
S11322808E8F4CA1BE016E5E7F4F84EC9CE00E9459
S1132290AE0681110AC08CE0E4ECFCE0AEE6BCE0E2
S11322A001900D928A95E1F704C0813011F40E94E7
S11322B0590780919E0C80935D0C882309F4EFC02C
S11322C0CBD780915D0C833049F480911E0C823011
S11322D061F188E00E94993BF7D527C0E6E5FCE070
S11322E081E0808314821382118216821186108603
S11322F0EEE1FCE084E687838087818780818230F9
S113230089F06AE77CE080E00E941A26882309F4B9
S11323107AC00E94FB3A40E050E0BA0180E0E1D18B
S113232080E03FD288E00E949E3510925D0C8D2D96
S1132330B6C081E0B4C082E0B2C084E1B0C088E13C
S1132340AEC084E1ACC088E1AAC084E1A8C084E145
S1132350A6C084E1A4C088E1A2C084E1A0C084E155
S11323609EC087E19CC085E19AC087E198C084E162
S113237096C085E194C084E192C086E290C089E170
S11323808EC084E08CC08BE18AC086E188C086E17F
S113239086C08CE184C085E282C08DE180C087E084
S11323A07EC08AE17CC08CE17AC08DE178C084E192
S11323B076C084E174C087E072C08AE170C08FE1A6
S11323C06EC087E06CC087E06AC08EE168C08FE1B0
S11323D066C086E164C08AE162C080E260C081E2D6
S11323E05EC082E25CC083E25AC081E258C081E2EE
S11323F056C08AE154C081E252C084E250C080E1F8
S11324004EC080E14CC087E04AC08FE148C01982C9
S11324101CA20C949A07A6E9BCE0AC92BCE1AB12F6
S113242027C00C941508E6E9FCE0A082FCE1AF1299
S113243025C00C941A0821E02FA71EA232E03DA368
S11324408091990C813009F0A1C86CC849A144233A
S1132450F1F0A6E5BCE0E6E9FCE080E090E0242FA2
S113246030E085CA1091970C103509F0AACACDCF77
S11324708EE1A8120C940F080C9415089EE1A9167D
S113248011F40C941D08A1E0AAA30C940F08109158
S1132490970C103509F4D8CC1F8E1AA292CAE19673
S11324A00FB6F894DEBF0FBECDBFDF91CF911F9161
S11324B00F91FF90EF90DF90CF90BF90AF909F90DF
S11324C08F907F906F905F904F903F902F900895E2
S11324D090910201892F887093FF0BC09091A00006
S11324E0892F807295FF05C0739902C081E0089519
S11324F082E00895E0EAF0E080818F7D8083E2E06D
S1132500F1E08081877F80830895E1E0F1E08081BC
S11325108061808383E08093A0008AE18093A1009E
S113252080E094E09093A9008093A8008081886063
S113253080836B9A2091110F3091120F4091130FE9
S11325405091140F60910D0F70910E0F80910F0F29
S11325509091100F0E948F3E9B01AC0160E070ECE3
S11325608FE794E40E94703F60930002709301022D
S11325708093020290930302BDCF08959093AB0021
S11325808093AA00892B31F4E0EAF0E080818F7D0A
S113259080830895E0EAF0E080818062808308957A
S11325A04F925F926F927F928F929F92AF92BF925F
S11325B0CF92DF92EF92FF922B013C018090110F9A
S11325C09090120FA090130FB090140FC0900D0FA5
S11325D0D0900E0FE0900F0FF090100FA70196010E
S11325E0C501B4010E946C418823CCF46091270C8E
S11325F070E080E090E00E940B402AE037ED43E277
S11326005CE30E94A741A30192010E94A7412B0110
S11326103C01A70196010E946C4188235CF0C092A2
S11326202C0CD0922D0CE0922E0CF0922F0C80E00A
S113263094E04AC0A5019401C301B2010E94693F1C
S11326401816FCF020E030E0A901C301B2010E9499
S1132650693F81110BC010922C0C10922D0C10921A
S11326602E0C10922F0C80E090E02EC080922C0C47
S113267090922D0CA0922E0CB0922F0C81E090E041
S113268023C040922C0C50922D0C60922E0C709210
S11326902F0CA5019401C301B2010E948F3E209129
S11326A000023091010240910202509103020E9403
S11326B0A7410E94464020E030E040E85FE30E94EA
S11326C0903E0E94DD3FCB01FF90EF90DF90CF90D2
S11326D0BF90AF909F908F907F906F905F904F903E
S11326E0089590911F0C911125C081110AC0109278
S11326F02C0C10922D0C10922E0C10922F0CFADE32
S113270017C0803111F473980AC0739A9091150F11
S113271091FF05C0803219F440E050E0BA01CB01CA
S1132720BA013EDF2BDFE2E0F1E080818860808344
S11327301092290C0895CF92DF92EF92FF92CF93DB
S113274090911E0C923041F06A017B01C82F84D510
S1132750B701A6018C2FC5DFCF91FF90EF90DF90DA
S1132760CF9008958091020185FF02C080E401C0EA
S113277080E09091020196FD80680895E2E0F1E026
S113278080818F7D808380818F7B80830895E1E0C9
S1132790F1E0808180628083808180648083EECFD9
S11327A0089590911F0C91111CC086FF06C0E2E0B1
S11327B0F1E090819062908305C0E2E0F1E09081C5
S11327C09F7D9083882334F4E2E0F1E0808180648B
S11327D0808305C0E2E0F1E080818F7B80831092EA
S11327E0290C0895CF9390911E0C923021F0C82F9C
S11327F033D58C2FD6DFCF91089580910602909126
S11328000702981720F0981B892F8095089581500E
S1132810891B0895E0ECF0E080818260808310924F
S1132820C50080E18093C400E1ECF0E08081886918
S113283080830895E091050221E02E0F04C0909159
S1132840310C94FD0FC0909104022917C1F3F0E0FC
S1132850E053F34F808320930502E1ECF0E08081A4
S11328608062808308951F920F920FB60F921124F5
S11328700BB60F928F939F93EF93FF938091040273
S1132880E82FF0E0E053F34F90819093C6008F5F00
S11328908093040290910502891305C0E1ECF0E0F5
S11328A080818F7D8083FF91EF919F918F910F9015
S11328B00BBE0F900FBE0F901F90189590910602BB
S11328C080910702981749F0E92FF0E0E053F24FA6
S11328D080819F5F9093060208958FEF08951F9261
S11328E00F920FB60F9211240BB60F922F933F93B2
S11328F04F935F936F937F938F939F93AF93BF9304
S1132900EF93FF93E091C600E132A1F018F4E831AF
S113291031F014C0EF3331F0EE3741F00FC00E94B4
S1132920230781C081E00E94993B7DC082E00E9420
S1132930993B79C088E00E94993B75C0EE230CF066
S113294064C08E2F90E0FC01E458F109EE31F105EA
S113295008F069C08827EB5FFE4F8F4F0C94B64296
S113296080E20E94993B5FC080911E0C85FF5BC092
S113297080E40E94993B57C09FB7F8948091540C0F
S113298081608093540C9FBF4EC081E00E940D3E35
S11329904AC082E00E940D3E46C084E00E940D3E83
S11329A042C088E00E940D3E3EC080E10E940D3E80
S11329B03AC080E20E940D3E36C080E40E940D3E83
S11329C032C080E80E940D3E2EC081E00E94163E77
S11329D02AC082E00E94163E26C084E00E94163E71
S11329E022C088E00E94163E1EC080E10E94163E6E
S11329F01AC080E20E94163E16C080E40E94163E71
S1132A0012C080E80E94163E0EC0A091070281E029
S1132A108A0F90910602891731F0B0E0A053B24FAB
S1132A20EC9380930702FF91EF91BF91AF919F9137
S1132A308F917F916F915F914F913F912F910F9063
S1132A400BBE0F900FBE0F901F9018958091070238
S1132A508093060208950E948529892B19F082E04B
S1132A600C94993B0895CF93DF93C091530CCC23DE
S1132A70A9F081E080931E0C8C2F0E946E35C1500A
S1132A80C23050F481E00E949E3580E10E94F73DFF
S1132A908091310C84FFFCCF0E94073EC091310C21
S1132AA0CC2309F4F4C0C4FF04C081E080931F0C5C
S1132AB008C2C0FF05C00E945B3881E00E94F73D58
S1132AC08C2F887E09F463C080911E0C982F93701C
S1132AD009F04CC0887291F08091200C807C71F4D4
S1132AE0BBD6EEE1FCE082E084838081803231F465
S1132AF0CC23BCF092819068928313C080911E0C09
S1132B00811106C091E09093200CC6FD05C0D6C18A
S1132B10C6FF07C085FD05C0EEE1FCE0928190642C
S1132B209283C3FF05C0807E19F480E180931E0C5C
S1132B30C5FF1CC086E00E949E358091200C88232E
S1132B4084F090911E0C903439F483FF07C0837E87
S1132B5082608093200C02C0903819F080E4809346
S1132B601E0CEEE1FCE0828180628283CC2364F45B
S1132B7080911E0C813029F4EEE1FCE082818560B5
S1132B80828380E880931E0C88EE0E94F73DC1FF8B
S1132B9041C08C2F8876D9F580911E0C803479F44D
S1132BA08091200C85FD33C084FF03C010921E0C5D
S1132BB018C082FF2CC088608093200C28C0882312
S1132BC081F084FF24C09091200C90FF20C08031BC
S1132BD041F48091280C882321F088608093280C8C
S1132BE016C01092220C0E948529892B61F08091D5
S1132BF0200C86FD08C0EEE1FCE0128288E08083B0
S1132C004BD63DD304C0EEE1FCE01282108282E098
S1132C100E94F73DC2FF3BC080911E0C807DB9F03D
S1132C208091210C811113C08091200C88239CF089
S1132C300E94252E8091220C81FF05C0EEE1FCE06C
S1132C40928191609283897F8093220C1DC0809130
S1132C50200C88234CF41092220C0E945F29A9D5E1
S1132C600E9459070E94072E8091200C85FF08C0FE
S1132C70EEE1FCE08F778160828380E4808304C08E
S1132C80EEE1FCE01282108284E00E94F73DC091E4
S1132C90190CCC2381F10E941F3E2091250CC0FF0A
S1132CA002C084E601C0822FC1FD865FC2FD8A5046
S1132CB0C3FD8F5FC4FD8150893C08F088EC8A30E5
S1132CC008F48AE03091260CC5FF02C094E601C0E6
S1132CD0932FC6FD92E3CC230CF499E1281302C090
S1132CE0931749F0EEE1FCE08783908713860E94F6
S1132CF0332A0E94252EC091300CCC2309F460C0E5
S1132D000E94253E9091270CC0FF02C084E601C0BA
S1132D10892FC1FD865FC2FD8A50C3FD8F5FC4FD4C
S1132D208150893C08F088EC8A3008F48AE09817CE
S1132D30B1F0EEE1FCE081878081811109C0E6E514
S1132D40FCE043855485658576858185CADC05C0AC
S1132D50EEE1FCE08481886084831092290CC5FF35
S1132D6012C080911E0C803171F48091280C811165
S1132D7004C082E08093280C9CC080FF9AC08460C9
S1132D808093280C96C08C2F807CD1F080911E0CEF
S1132D90882311F08873A1F0D0915E0CCC232CF41D
S1132DA0DD2314F4DF7701C0D068C6FF05C0D6FF69
S1132DB002C0DF7B01C0D0648D2FF3DCD0935E0CA6
S1132DC08091140C81FF19C04091150C5091160C80
S1132DD06091170C7091180C4F5F5F4F6F4F7F4FCE
S1132DE04093150C5093160C6093170C7093180CA9
S1132DF09091140C9D7F9093140C80FF4CC0809193
S1132E00550C8F5F8093550C0E94E80260934F0C21
S1132E107093500C8093510C9093520C8091140C2D
S1132E208E7F8093140C0E94E80260934F0C709381
S1132E30500C8093510C9093520C8091330C9091D0
S1132E40340CA091350CB091360C40914F0C50913C
S1132E50500C6091510C7091520C841B950BA60B75
S1132E60B70B80931A0C90931B0CA0931C0CB0937B
S1132E701D0C80914F0C9091500CA091510CB0916D
S1132E80520C8093330C9093340CA093350CB09374
S1132E90360C0E947B358091540C882321F00E94CB
S1132EA05D3A1092540C80911E0C8C7F51F0F4D436
S1132EB008C08C2F807C09F06FCF82CFC3FD35CE44
S1132EC037CEDF91CF9108957F928F929F92AF92E8
S1132ED0BF92CF92DF92EF92FF920F931F93CF9303
S1132EE0DF93C1DD8091200C882309F4F4C00E9493
S1132EF08529EC01892B51F4E6E5FCE0D184808539
S1132F00D82A83849484A584B6840AC08989182F16
S1132F10107328DCD82ED12A8AA89BA8ACA8BDA8F7
S1132F208091150F81FF03C080E20E94163E9091AC
S1132F30200C992309F4CFC080911F0C8111CBC0C0
S1132F40CEE1DCE08D2D8073C82E06E51CE00F2E4B
S1132F50F5E1EF2EFFE0FF2EF02D77247394ED2D95
S1132F60E07CDE2E03C029812111B5C090FFA7C0EB
S1132F702881322F307C09F469C092FD0DC01A8675
S1132F8040E050E0BA0180E0ACDB80E00ADC8A81FA
S1132F908D7F84608A8393C02038B1F48BE00E94D3
S1132FA09E3540E050E0BA0180E09BDB80E0F9DB35
S1132FB07ED180911F0C81118EC0CEE1DCE053DD07
S1132FC089818823E1F387C0203439F40E94D63AFA
S1132FD0811103C08A818F7D8A838A8183FF6FC0B8
S1132FE0F80191859923C9F081FD6EC0F7018081B4
S1132FF081FF08C08C8188608C83F80180858111F1
S113300013C067C0B501A4018C2D6BDB472D60E0B4
S113301070E080E890E40E94F32EF8018085882314
S113302061F08A8181FD4BC08D2DBBDB472D60E0B3
S113303070E080E89FE30E94F32E8A8181FD3FC007
S113304080618A8382E00E94993B39C09A859923E2
S113305061F191FF0DC0F8018185882339F040E0CA
S113306050E0BA0180E03DDB7A8629C01A8627C089
S11330709C7029F1F8018185882379F08AE00E9407
S11330809E35F701808181FF04C08C8188608C8328
S113309004C0B501A4018C2D24DB8A8583FF03C001
S11330A082E00E94993B1A860AC08C8183FF07C084
S11330B0B501A4018C2D15DB8C81877F8C83D3DC37
S11330C09A81911150CF07C0F80180858111F7CF03
S11330D0B4CF8A81B5CFDF91CF911F910F91FF902B
S11330E0EF90DF90CF90BF90AF909F908F907F90A4
S11330F00895DF92EF92FF920F931F93CF93DF9384
S11331008091150F83FF0AC00E946530882331F037
S113311081E080931E0C87E00E949E3580911E0CF6
S1133120817871F082E00E949E3581E080931E0CCC
S1133130F12CE12CCEE1DCE008E012E0D12C7BC0E4
S113314010921E0C0E94D63A882331F08091310CE3
S113315080628093310CB8DE88E092E00E94D93A14
S1133160E7CF8A3011F08D30B1F5AEDE898181115F
S11331706BC0EF2DF0E0E85FFD4F1082E0FE06C06B
S11331808BE00E945E35FD2CE12C55C0F801808156
S1133190811106C08D2D0E945E35FD2CE12C4BC0A3
S11331A0843241F4C8010E94A23B0E945E35FD2C8A
S11331B0E12C41C08881817231F089E00E945E3542
S11331C0FD2CE12C38C0C8010E9460070E945E35C6
S11331D0FD2CE12C30C0EE2031F0893261F5FE2D5A
S11331E0FD7FEF2E28C0813230F18F3221F18832F9
S11331F0C1F08B33D1F09FEFF916D9F09FE9980F06
S11332009A3140F4EF2DF0E0E85FFD4F8052808367
S1133210F39411C0EF2DF0E0E85FFD4F8083F39449
S11332200AC06894EE24E1F806C06894EE24E2F83B
S113323002C0EE24E39442DB8F3F09F092CF0BDC13
S113324043DE89818823B9F3DF91CF911F910F91D8
S1133250FF90EF90DF900895CF93DF93FCDBCEE1F6
S1133260DCE032DE8981811107C00E948529892B27
S1133270C1F788818830A9F3DF91CF9108958091B7
S1133280150F82FF02C02F9A01C02F98E3E4F3E0E8
S113329080913F0386878091000F880F8450819529
S11332A08587EFE6F0E08081826080830895EFE611
S11332B0F0E080818D7F8083E1E8F0E08081887F89
S11332C08160808310923D038091030F8F3F49F406
S11332D09091530C911105C090911E0C903881F47B
S11332E004C090911E0C943059F090E00E94302F4D
S11332F08091150F82FD02C02F9A08952F9808958A
S11333008091150F82FFFACFF7CF1F920F920FB65D
S11333100F9211240BB60F922F933F934F935F9309
S11333206F937F938F939F93AF93BF93CF93DF93C9
S1133330EF93FF9380913D038111D0C188B1E3E401
S1133340F3E09785907E8F71892B88B982B1837E53
S11333509685892B82B9858586BD82E085BD81E00D
S113336080933D03789481A192A1892B09F0A9C08F
S11333708091420390914103981709F493C0E0911E
S11333804203F0E0A3E4B3E0EE0FFF1FEE0FFF1FD4
S1133390EE0FFF1FEA59FC4F9296FC93EE93919720
S11333A082819381909389008093880080819181A8
S11333B05D969C938E935C9784815E969C915E97B8
S11333C0981749F1ED018E8F90E0880F991FDC0169
S11333D0AA0FBB1FAA0FBB1FAA0FBB1F8A0F9B1FDD
S11333E0DC01AA54BC4FB8A3AF8F1C968D919D915C
S11333F00D90BC91A02DB695A79597958795888734
S11334009987AA87BB878C839D83AE83BF83888378
S11334109983AA83BB83A3E4B3E05F96CD91DC9147
S11334209097988980913E0389271F968C931F97C4
S1133430488159816A817B81058004C076956795AE
S1133440579547950A94D2F750964D935D936D9393
S11334507C9353974C815D816E817F81058004C08C
S113346076956795579547950A94D2F754964D9358
S11334705D936D937C935797488559856A857B85C1
S1133480058004C076956795579547950A94D2F7B9
S113349058964D935D936D937C935B97868197814A
S11334A06DD80FC004DFE0916203F091630381895A
S11334B0882319F080E090E061D884E00E94993B71
S11334C00DC18091320C813011F40E940135E3E486
S11334D0F3E01686408151816281738180899189EC
S11334E0A289B389840F951FA61FB71F8083918378
S11334F0A283B383078CF0A1E02D448555856685AE
S11335007785481759076A077B0770F5C3E4D3E04A
S113351024E02E874485558566857785841B950B25
S1133520A60BB70B88839983AA83BB8380898823DE
S113353074F4C3E4DCE088819981AA81BB8101979A
S1133540A109B10988839983AA83BB830DC0C3E40D
S1133550DCE088819981AA81BB810196A11DB11DFE
S113356088839983AA83BB83C3E4D3E04C815D81C0
S11335706E817F818C899D89AE89BF89840F951F57
S1133580A61FB71F8C839D83AE83BF834485558557
S113359066857785481759076A077B0768F52E857E
S11335A028602E874485558566857785841B950B11
S11335B0A60BB70B8C839D83AE83BF83808986FF64
S11335C00EC0C3E4DCE08C819D81AE81BF81019794
S11335D0A109B1098C839D83AE83BF830DC0C3E46D
S11335E0DCE08C819D81AE81BF810196A11DB11D5E
S11335F08C839D83AE83BF83C3E4D3E04885598520
S11336006A857B85888D998DAA8DBB8D840F951FC6
S1133610A61FB71F88879987AA87BB8744855585C6
S113362066857785481759076A077B0768F52E85ED
S113363020612E874485558566857785841B950B87
S1133640A60BB70B88879987AA87BB87808985FFD4
S11336500EC0E3E4FCE080859185A285B3850197E3
S1133660A109B10980879187A287B3870DC0E3E4DC
S1133670FCE080859185A285B3850196A11DB11DCD
S113368080879187A287B38780911E0C843039F498
S1133690E3E4F3E096858091240C89238687E3E4B0
S11336A0F3E0848D958D0197958F848F892B69F430
S11336B01092650310926403809142038F5F80939C
S11336C042038A3011F410924203E3E4F3E0968556
S11336D080913F038927868710923D03FF91EF91E4
S11336E0DF91CF91BF91AF919F918F917F916F9116
S11336F05F914F913F912F910F900BBE0F900FBE92
S11337000F901F9018951F920F920FB60F921124CD
S11337108F939F9382B190913F039C71837E892BF9
S113372082B915BC9F918F910F900FBE0F901F907F
S11337301895EF92FF920F931F93CF93DF931092FC
S11337403F0310923E03C0E0D0E000ED1EE0EC2EFB
S1133750FC2EF80181A990E00C2E02C09595879566
S11337600A94E2F780FF08C08C2F0E94D127909121
S11337703F03892B80933F03F80182A990E002C0A4
S113378095958795FA94E2F780FF08C08E2D0E94E4
S1133790DB2790913E03892B80933E032196C3300F
S11337A0D105A9F6DF91CF911F910F91FF90EF9072
S11337B00895CF93DF937BDD81E3E8E0F3E0DF015D
S11337C01D928A95E9F7C3E4D3E083E2FE011192E6
S11337D08A95E9F710923C0310923B03109242033E
S11337E01092410381E08093400310923D03A1DFD6
S11337F080913E038F8782B1837E90913F03892B12
S113380082B988B18F7190913E03892B88B9DF9179
S1133810CF91089581B18C6181B9279A87B1806E67
S113382087B9E1E8F0E080818F7E808380818860C1
S11338308083E0E8F0E080818C7F808380818F70DA
S11338408083EEE6F0E08081887F808314BC15BC21
S11338508081816080830895CF93DF93C0913B037F
S1133860D0913C032097A9F0E8E0F3E081818160E6
S113387081836789708D818D928D9B01AC010E943B
S1133880A7416E8B7F8B888F998F10923C03109287
S11338903B03DF91CF9108952F923F924F925F9215
S11338A06F927F928F929F92AF92BF92CF92DF924C
S11338B0EF92FF920F931F93CF93DF93CDB7DEB7B1
S11338C0EC970FB6F894DEBF0FBECDBF8091220CEB
S11338D080FF02C00C947C240F2EF8E06F2EF3E0DE
S11338E07F2EF02D22E02AAF29AFCDC780913B0374
S11338F090913C03892B09F011C38091220C82FF23
S113390007C00E947C2990933C0380933B0306C02C
S11339100E94852990933C0380933B03E0903B03F2
S1133920F0903C03E114F10409F4E6C7D3011196C5
S11339301C911197812F817010FF03C011961C9266
S1133940EBC0F30190819F5F993009F0892FD30177
S11339508C9390E0FC01EE0FFF1F9F01220F331F99
S1133960220F331F220F331FE20FF31FEA54FC4FC1
S1133970F0933A03E0933903D70150962C91509772
S1133980208B9701245F3F4FFA82E9824D915D912C
S11339906D917D91440F551F661F771F440F551F6E
S11339A0661F771F440F551F661F771F419351935E
S11339B061937193A217B30749F7E980FA80880FDE
S11339C0991FFC01EE0FFF1FEE0FFF1FEE0FFF1FED
S11339D08E0F9F1F9C012A543C4FF70184859585C7
S11339E0A685B785880F991FAA1FBB1F880F991F2B
S11339F0AA1FBB1F880F991FAA1FBB1FF901848729
S1133A009587A687B787D7011C966D917D918D9177
S1133A109C911F970E940940F301668377838087F6
S1133A209187D70192962D913D914D915C919597F7
S1133A300E94703F9B01AC01F30162877387848706
S1133A40958760E070E080EA9FE30E94703FD301B5
S1133A501E966D937D938D939C935197F3011282DF
S1133A601382148215828091220C81FD02C013FFFF
S1133A701BC0D3015F966D917D918D919C9192971E
S1133A80F301678B708F818F928F9B01AC010E9431
S1133A90A741D70156966D937D938D939C93599727
S1133AA0177FF30111830EC0D70156966D917D9156
S1133AB08D919C9159970E943442F301678B708FCA
S1133AC0818F928F2091390330913A033A8329836D
S1133AD0D90151961C92E5E1FFE0808181FF1CC071
S1133AE0E0913B03F0913C03818985FF15C026A535
S1133AF037A540A951A960E070E080E89FE30E94E7
S1133B00703FD3019B966D937D938D939C939E9769
S1133B1021E0E981FA81218BD30153961D921D92F4
S1133B201D921C925697E0913B03F0913C03FE8357
S1133B30ED83868C978CA0A0B1A0A501940160E0D0
S1133B4070E080E09FE30E94703F69837A838B83F7
S1133B509C838091220C81FF54C0E2E0D3015296F1
S1133B60EC93AD81BE8192962D903D904D905C90EA
S1133B7095975696CD90DD90ED90FC905997A701BE
S1133B80960169817A818B819C810E94A7419B0166
S1133B90AC01C201B1010E948F3E69837A838B8399
S1133BA09C8320E030E0A9010E94693F8823C4F48B
S1133BB0A5019401C501B4010E94903EA2019101A6
S1133BC00E94A7419B01AC01C701B6010E948F3E30
S1133BD00E943442F301678F70A381A392A399C119
S1133BE029813A814B815C81D30153962D933D9376
S1133BF04D935C935697F301178E10A211A212A253
S1133C0088C1D30152961C925297ED81FE8142A144
S1133C1053A164A175A193964D935D936D937C9389
S1133C20969782FF0AC0F301178E10A211A212A266
S1133C3019861A861B861C860FC00E9495296987DF
S1133C407A878B879C870E943442D3015F966D9359
S1133C507D938D939C93929780913B0390913C0329
S1133C600E94B6294B015C019B01AC010E94A74153
S1133C706D837E838F839887E0913B03F0913C03AF
S1133C80FE87ED87C2A0D3A0E4A0F5A026883788DC
S1133C90408C518CA20191010E94693F88230CF051
S1133CA071C02D813E814F815885C201B1010E94AE
S1133CB08F3E29813A814B815C810E94A7419B01FF
S1133CC0AC01C701B6010E948F3ED30193966D9358
S1133CD07D938D939C93969720E030E0A9010E94F8
S1133CE0693F181684F122E0F301228BAD85BE856D
S1133CF05E96CD90DD90ED90FC909197A701960192
S1133D00C701B6010E94903EED85FE8522A133A134
S1133D1044A155A10E94A7419B01AC01AD85BE857C
S1133D2056966D917D918D919C9159970E948F3EED
S1133D300E943442F301678F70A381A392A381810F
S1133D4088608183E6C029853A854B855C856D81D1
S1133D507E818F8198850E948F3E29813A814B8193
S1133D605C810E94A741D30197966D937D938D93B7
S1133D709C939A97F301838E948EA58EB68E23E03E
S1133D80228BC7C029853A854B855C85C201B10168
S1133D900E948F3E29813A814B815C810E94A74118
S1133DA0A70196010E94903E20E030E040E05FE3EE
S1133DB00E94A7411B012C0120E030E0A9010E94D0
S1133DC06C4118160CF093C0A2019101C701B60111
S1133DD00E946C4118160CF085C029853A854B85E4
S1133DE05C856D817E818F8198850E948F3E2981BB
S1133DF03A814B815C810E94A7419B01AC01D301B4
S1133E0097966D937D938D939C939A97C201B1017C
S1133E100E946C411816D4F5F301838E948EA58EFE
S1133E20B68EAD85BE8556962D903D904D905C9096
S1133E305997A20191016D817E818F8198850E949D
S1133E40693F811104C021E0F301228B62C0A20109
S1133E5091016D817E818F8198850E948F3E298199
S1133E603A814B815C810E94A7419B01AC01D30143
S1133E7093966D917D918D919C9196970E948F3E22
S1133E80F30163A374A385A396A343C0D3019396BC
S1133E902D923D924D925C929697F30127A230A603
S1133EA041A652A6AD85BE855E96CD90DD90ED907F
S1133EB0FC909197A7019601C701B6010E94903E1C
S1133EC0A20191010E94A74129853A854B855C8511
S1133ED00E94903E0E943442F301638F748F858F59
S1133EE0968F17C0E2E0D3015296EC9312C0D3012F
S1133EF093961D921D921D921C9296975F968D919A
S1133F009D910D90BC91A02DF301838F948FA58F6B
S1133F10B68F8091220C88608093220CE09141033B
S1133F202E2F30E03BAB2AABF901EE0FFF1FEE0F53
S1133F30FF1FEE0FFF1FEA59FC4FD3018C918483BE
S1133F40E0913B03F0913C03FB8FEA8FF2A1FAA7C7
S1133F50AA8DBB8D9396BC91BBA7EA8DFB8DF4A172
S1133F60FCA7AA8DBB8D9596BC91BDA7F3012685B0
S1133F703785408951896AA57BA58CA59B2F0E9412
S1133F808F3E6AA37BA38CA39DA320E030E0A9010C
S1133F900E94693F882324F41AA21BA21CA21DA21A
S1133FA0D3015B96BC91BE8BF301F48DFF8BD301DF
S1133FB05D96BC91B88FF301F68DF98FD30193967A
S1133FC0BC91BE8FF301F4A1FF8FD3019596BC91F0
S1133FD0B8A3F301F6A1F9A3D3015796BC91B98311
S1133FE0F301F08DFD83D3015996BC91B987F30198
S1133FF0F28DF98BD3019796BC91BEA3F301F0A582
S1134000FFA3D3019996BC91B8A7F301F2A5F9A730
S1134010D3015296BC91BD8FF301F389FA8BD3017E
S11340205496BC91BB8BF301F589FC8BD301569656
S1134030BC91BD8BF301F78DFEA7D3019096BC9183
S1134040BFA7F301F1A1F8ABD3019296BC91B9AB30
S11340502EA13FA148A559A56E8D7F8D88A199A158
S11340600E94693F811102C08AAD01C081E05AA457
S11340701BA50CA5EDA5EC8F0F2EFEE34F2EF02D06
S11340800F2EF3EC3F2EF02D0F2EFEE22F2EF02DEF
S11340900F2EF9E3FF2EF02D812C912C54010F2EBD
S11340A0FEE3CF2EF02D0F2EF3ECDF2EF02D0F2E8E
S11340B0FEE2EF2EF02DF9E3FD878DAB2D8D2CAFB5
S11340C07FAA6EAA7C2C812F1E2DE52C5D2CC02E80
S11340D009E3FBAEFE2ED82E3CAD313009F40FC1FE
S11340E008F48FC0333009F048C1AA8DBB8D5E96A9
S11340F02D913D914D915C919197642D732D822D5D
S11341009BAD0E94A7416D877E878F87988B2E89F0
S11341103F89488D598D69817D81898599890E945E
S11341208F3E9B01AC016D857E858F8598890E94A9
S11341306C4188239CF12E8D3F8D48A159A16AA51D
S11341407BA58CA59DA50E948F3E9B01AC010E947E
S1134150903E6B017C0129813D81498559896E8995
S11341607F89888D998D0E94903E9B01AC01C70187
S1134170B6010E94703F462E372E282E9BAFBE8973
S1134180B983EF89ED83F88DF987298D298BEE8C1E
S1134190DF8CC8A0F9A038AD3CAF80C120E030E08E
S11341A040E05FE36D857E858F8598890E94A741F5
S11341B09B01AC0169817D81898599890E948F3E2B
S11341C0242D332D422D5BAD0E94A7419B01AC01F0
S11341D06E2D7D2D8C2D9F2D0E948F3EE62ED72E89
S11341E0C82EF92E2D853E854F85588969817D819C
S11341F0898599890E948F3E69837D838987998BFC
S11342004DC1AA8DBB8D5E962D913D914D915C91D2
S11342109197642D732D822D9BAD0E94A7416D87CC
S11342207E878F87988B20E030E040E05FE30E9438
S1134230A74129813D81498559890E94903E242DB9
S1134240332D422D5BAD0E94A7419B01AC016E2D25
S11342507D2D8C2D9F2D0E948F3EE62ED72EC82EAD
S1134260F92E262F372F482F592F6E8D7F8D88A139
S113427099A10E946C4118169CF52E8D3F8D48A182
S113428059A16AA57BA58CA59DA50E948F3E9B0183
S1134290AC010E94903E6B017C0129813D814985DE
S11342A059896E897F89888D998D0E94903E9B01E2
S11342B0AC01C701B6010E94703F462E372E282E4E
S11342C09BAFBE89B983EF89ED83F88DF987298D7A
S11342D0298B3DA93CAFEE8CDF8CC8A0F9A0DEC0D1
S11342E02D853E854F85588969817D818985998988
S11342F00E94903E69837D838987998BCFC02E89E4
S11343003F89488D598D642D732D822D9BAD0E945C
S1134310A7419B01AC016E2D7D2D8C2D9F2D0E94FC
S11343208F3E6D877C8F8D8F692E262F372F482FD8
S1134330592F6EA17FA188A599A50E946C411816DA
S11343400CF0A8C02EA13FA148A559A56E2D7D2D26
S11343508C2D9F2D0E948F3E2E893F89488D598D2B
S11343600E94703F462E372E282E9BAFEEA0DFA072
S1134370C8A4F9A449AD4CAF91C0AA8DBB8D5E967B
S11343802D913D914D915C919197642D732D822DCA
S11343909BAD0E94A7416D877E878F87988B9B0179
S11343A0AC0169817D81898599890E946C411816C7
S11343B00CF03FC020E030E040E05FE36D857E8597
S11343C08F8598890E94A7419B01AC0169817D81F9
S11343D0898599890E948F3E242D332D422D5BAD12
S11343E00E94A7419B01AC016E2D7D2D8C2D9F2D2C
S11343F00E948F3E6C8F7D8F8CAB692E2A893B89FE
S11344004C895D890E946C4118169CF42D853E856B
S11344104F85588969817D81898599890E948F3E5C
S113442069837D838987998BEC8CDD8CCCA8F62CF1
S113443035C02A893B894C895D896E2D7D2D8C2D53
S11344409F2D0E948F3E9B01AC010E94903E6B0108
S11344507C012EA53FA548A959A969817D8189853B
S113446099890E94903E9B01AC01C701B6010E944C
S1134470703F462E372E282E9BAFBEA5B983EFA5DD
S1134480ED83F8A9F98729A9298BEA88DB88CC88E8
S1134490FD8804C0ED84DC8CCD8CF62C242D332DCA
S11344A0422D5BADC501B4010E94903E4B015C01FD
S11344B09B01AC01672D752D812F902F0E946C41BB
S11344C018166CF4A5019401672D752D812F902F7A
S11344D00E948F3E462E372E282E9BAF36C02AA12F
S11344E03BA14CA15DA16E2D7D2D8C2D9F2D0E9495
S11344F06C411816A4F03CAD6EA87FA85E2C1D2D4F
S11345000C2DFC8ED30152963C9389819D81A98503
S1134510B989F301878B908FA18FB28F37C02EE3B7
S113452033EC4EE259E3672D752D812F902F0E94B5
S1134530903E762E572E182F092FA50194010E9424
S11345408F3E462E372E282E9BAF2A893B894C89D5
S11345505D896E2D7D2D8C2D9F2D0E946C4118162A
S11345600CF4BACDFCADFD8F6EA87FA85E2C1D2D7A
S11345700C2DFC8ED3015296FC9389819D81A985D3
S1134580B989F301878B908FA18FB28FE0913903A2
S1134590F0913A038189811199C18091220C83FDA4
S11345A0A5C118C00E94D012D301D0969C938E93BB
S11345B09F970BC010922C0C10922D0C10922E0C65
S11345C010922F0CF30110AA17A68091220C877F5A
S11345D08093220C8AA99BA9880F991F880F991F81
S11345E0880F991F9C012A593C4F1901D3019F96AA
S11345F08D919C91D097F901978386831A962D917A
S11346003D914D915C911D97652D712F802F9C8D4F
S11346100E94A74169837A838B839C830E94563FBF
S11346206D837E838F839887D30116966D917D91D8
S11346308D919C9119970E94563F69877A878B8741
S11346409C872D813E814F8158850E948F3E0E9418
S1134650DD3F6B017C01F10171836083672B41F4C1
S11346608091220C81FF04C081608093220C44C19C
S1134670D30112962D913D914D915C911597C501F1
S1134680B4010E94903E4B015C0129813A814B8127
S11346905C8169857A858B859C850E948F3E9B0110
S11346A0AC01C501B4010E94703F4B015C0120ECD8
S11346B031EE44E65EE40E94A7410E94563F0E9408
S11346C0DD3F603DB7E07B078105910560F4EAA911
S11346D0FBA9EE0FFF1FEE0FFF1FEE0FFF1FEA599E
S11346E0FC4F15824DC0603AEFE07E0781059105CD
S11346F068F4EAA9FBA9EE0FFF1FEE0FFF1FEE0FF0
S1134700FF1FEA59FC4F21E025831FC060343FE1BD
S113471073078105910568F4EAA9FBA9EE0FFF1F51
S1134720EE0FFF1FEE0FFF1FEA59FC4F42E04583D7
S11347300CC0EAA9FBA9EE0FFF1FEE0FFF1FEE0F3F
S1134740FF1FEA59FC4F53E05583EAA9FBA9EE0F7A
S1134750FF1FEE0FFF1FEE0FFF1FEA59FC4F2581CD
S1134760022E04C096958795779567950A94D2F79B
S1134770D60102C0AA0FBB1F2A95E2F7B183A0831A
S113478061157105B1E08B07910568F4EAA9FBA9ED
S1134790EE0FFF1FEE0FFF1FEE0FFF1FEA59FC4F36
S11347A0738362830EC0EAA9FBA9EE0FFF1FEE0F0D
S11347B0FF1FEE0FFF1FEA59FC4F2FEF3FEF33832C
S11347C0228380914003809341038F5F8A3019F0E4
S11347D08093400302C010924003E0913B03F091A8
S11347E03C03852D912FA02FBC8D82A393A3A4A35A
S11347F0B5A38D819E81AF81B885F30186839783AC
S1134800A087B18729813A814B815C81BC01CD01AC
S11348100E948F3EA50194010E94A741D3011296E4
S11348206D937D938D939C93159753962D913D9104
S11348304D915C915697652D712F802F9C8D0E9410
S1134840693F811122C0452C2C8C20E030E0A90165
S1134850642D712F802F922D0E946C41181634F410
S1134860EEE1FCE084818160848346C08091220C67
S113487082FF04C081608093220C3EC010923C03EE
S113488010923B0325D5B1E0B8AF909142038091DB
S1134890400398132BC830C0EA8DFB8DC2A8D3A85F
S11348A0E4A8F5A8D3019B962D913D914D915C917F
S11348B09E9757966D917D918D919C915A970E94E8
S11348C0A741A70196010E94A7416CCEEA8DFB8DFA
S11348D08189807309F46ECEDFCFAA8DBB8DD29609
S11348E06D917D918D919C91D5975CCEEA8DFB8DD8
S11348F08189807391F75ECEEC960FB6F894DEBF93
S11349000FBECDBFDF91CF911F910F91FF90EF901C
S1134910DF90CF90BF90AF909F908F907F906F90DB
S11349205F904F903F902F90089580911E0C8C774C
S113493049F060911F0370912003809121039091AD
S11349402203089560E070E0CB010895F999FECF49
S113495092BD81BD81E08FBB80B50895F894F9992B
S1134960FECF92BD81BD81E08FBB80B58627962F97
S1134970982359F06F3F29F060BD84E08FBBF99A0A
S11349800AC084E18FBBF99A06C0882321F060BD78
S113499084E28FBBF99A789408958F929F92AF9294
S11349A0BF92CF92DF92EF92FF920F931F93CF9318
S11349B0DF937C018B016A014115510501F15A0114
S11349C0C0E0D1E001C0C401C11108C06C2FCC0FFC
S11349D0770BC72FCC1FCC27CC1F01C0CD2FF801DC
S11349E061918F01C60F4C01FFEF8F1A9F0AB6DF4A
S11349F021E0A21AB10839F7EC0CFD1C01C0C0E09B
S1134A006C2FC701ABDFDF91CF911F910F91FF9006
S1134A10EF90DF90CF90BF90AF909F908F900895CC
S1134A208F929F92AF92BF92CF92DF92EF92FF92BA
S1134A300F931F93CF93DF937B016A0141155105B7
S1134A4009F1C82FD92F5A01CB01912C88248394C2
S1134A508C010F5F1F4F7ADF911008C0292D990C2C
S1134A60330B232F221F2227221F01C0282D982E0B
S1134A70920E899381E0A81AB108C80149F7EC0C99
S1134A80FD1C01C0912CC70161DF21E030E08915D4
S1134A9011F020E030E0C901DF91CF911F910F9117
S1134AA0FF90EF90DF90CF90BF90AF909F908F904A
S1134AB008951F93CF93DF93182FEB010E942C19B5
S1134AC021E031E0129FC001139F900D112440E0BA
S1134AD051E0BE019D5F61DFDF91CF911F91089589
S1134AE040E051E0BC018EEA93E057CF08950F9364
S1134AF01F93CF93C82F8B010E942C192DE0C29FC6
S1134B00C00111244CE050E0B8019E5F46DFCF9114
S1134B101F910F9108956AE080E090E01FDF45E562
S1134B2050E060ED7EE081E090E037CF08950F9390
S1134B301F93CF93DF93CDB7DEB72C970FB6F894BE
S1134B40DEBF0FBECDBF082F80FF0AC085E5EAEEA9
S1134B50F2E0A0EDBEE005900D928A95E1F7DBDF6F
S1134B6001FF10C0FE0131968CE0DF011D928A9591
S1134B70E9F710E0BE016F5F7F4F812FB8DF1F5F41
S1134B801830C1F702FF10C060E080E093E0E6DE79
S1134B9060E081E093E0E2DE60E081E094E0DEDE6C
S1134BA060E082E094E0DADE03FF08C060E08EEAB1
S1134BB093E0D4DE60E08FEA93E0D0DE2C960FB66B
S1134BC0F894DEBF0FBECDBFDF91CF911F910F913F
S1134BD008951F93CF93DF93182FEB0181E091E0A9
S1134BE0189FB001199F700D11247D5F40E051E0C2
S1134BF0CE0116DF892B31F41882BE01812F59DFD3
S1134C0080E001C081E0DF91CF911F910895CF939F
S1134C10DF93EC0140E051E06EEA73E001DF892BA1
S1134C2029F41882CE015CDF80E001C081E0DF91CD
S1134C30CF9108951F93CF93DF93182FEB018DE04D
S1134C40189FB00111247E5F4CE050E0CE01E8DEF5
S1134C50892B51F48CE0FE0111928A95E9F7BE018B
S1134C60812F45DF80E001C081E0DF91CF911F916A
S1134C70089580E090E06ADE8A3061F445E550E012
S1134C8061E070E080ED9EE0CBDE21E0892B19F439
S1134C9020E001C020E0822F0895CF92DF92EF92AE
S1134CA0FF92CF93DF93C82F6A017B0120E030E0AD
S1134CB0A901C701B6010E94693F88230CF407C10A
S1134CC0C436A0F0ECE9EC0FE33020F0EA3008F051
S1134CD00CC1FFC0F0E0EE0FFF1FEE0FFF1FE0530B
S1134CE0F14FC082D182E282F382EEC0C701B601E5
S1134CF00E9475420E94DD3F8C2F90E08132910525
S1134D0008F0E9C0FC018827ED5DFE4F8F4F0C943D
S1134D10B642633008F4E1C06093000FD5C06093DD
S1134D20030FD2C06093010F0E94991BCDC0609302
S1134D30020F0E94991BC8C0662331F0E5E1FFE031
S1134D40808184608083C0C0E5E1FFE080818B7F47
S1134D508083BAC0662331F0E5E1FFE0808180649E
S1134D608083B2C0E5E1FFE080818F7B8083ACC0AB
S1134D70662331F0E5E1FFE080818068808305C02F
S1134D80E5E1FFE080818F77808380E00E94DC345E
S1134D909BC06093040F98C0C092050FD092060F79
S1134DA0E092070FF092080F8FC0C092090FD092C3
S1134DB00A0FE0920B0FF0920C0F86C0662331F0BD
S1134DC0E5E1FFE080818160808305C0E5E1FFE0EB
S1134DD080818E7F80830E94FB3A76C0662341F0F7
S1134DE08091150F84FF7BC080628093150F6CC087
S1134DF0E5E1FFE080818F7D808366C0662331F02A
S1134E00E5E1FFE080818860808305C0E5E1FFE0A3
S1134E108081877F80830E94443056C0662331F0AE
S1134E20E5E1FFE08081806180834EC0E5E1FFE041
S1134E3080818F7C808348C06093160F45C0C092E8
S1134E40170FD092180FE092190FF0921A0F3CC06E
S1134E50C0921B0FD0921C0FE0921D0FF0921E0FF8
S1134E6033C0862F90E09093200F80931F0F2CC0A7
S1134E70C092210FD092220FE092230FF092240FC0
S1134E8023C0C0920D0FD0920E0FE0920F0FF0923C
S1134E90100F0E94851218C0C092110FD092120FE9
S1134EA0E092130FF092140F0E9485120DC0662336
S1134EB031F0E5E1FFE080818260808305C0E5E1B7
S1134EC0FFE080818D7F808326DE80E058C084E00F
S1134ED056C083E054C083E052C086E050C08AE0EC
S1134EE04EC083E04CC083E04AC0E2E9EC0FE330FB
S1134EF070F0EA30B0F388E88C0F8330A0F08A3089
S1134F0090F38EE78C0F833048F183E038C0F0E0F3
S1134F10EE0FFF1FEE0FFF1FE452F14FC082D1824C
S1134F20E282F382D1CFC82FD0E0CC0FDD1FCC0FAB
S1134F30DD1FC851D14F20E030E040E752E4C70103
S1134F40B6010E94A74120E030E040E752E40E940D
S1134F50A741688379838A839B83B6CFE82FF0E0E7
S1134F60EE0FFF1FEE0FFF1FEC50F14FF7FAF09416
S1134F70F7F8F094C082D182E282F382A5CFDF9168
S1134F80CF91FF90EF90DF90CF90089572DE811162
S1134F9007C087E00E945E358FEFC9DD0C94E635CB
S1134FA00895882321F0813021F080E1089584E080
S1134FB0089588E00895882321F0813021F080E26B
S1134FC0089580E8089580E40895882321F08130CD
S1134FD021F080E4089580E1089580E208952F92FD
S1134FE03F924F925F926F927F928F929F92AF9275
S1134FF0BF92CF92DF92EF92FF920F931F93CF93C2
S1135000DF93C0917604C11101C0C4E2C150D091B4
S11350107404DC1709F436C10C2F10E026E3C29F98
S1135020C0011124FC01E858FB4F6F01E28CF38CA2
S1135030948C858C668D778D80A191A19B01AC01A8
S11350400E94903EF60122A133A144A155A10E94E1
S1135050A741A62EB72EC82ED92E262F372F482F7C
S1135060592F6E2D7F2D892D982D0E94693F8823FD
S113507024F0EA2CFB2C9C2C8D2C86E3809FF001E1
S1135080819FF00D1124E858FB4F8E2D9F2DA92DE3
S1135090B82D868B978BA08FB18FC11101C0C4E24C
S11350A0C150DC1307C080917704D8137CC00E94E0
S11350B02C1C79C026E3209FC001219F900D112450
S11350C09C0128583B4F6901D6E3EC2EF12CDE9D60
S11350D08001DF9D100D112408581B4FC11101C020
S11350E0C4E2C150809177048C1302C00E942C1C2E
S11350F0DE9DF001DF9DF00D1124E858FB4F428C3A
S1135100538C648C758CA301920166897789808D98
S1135110918D0E94693F882309F440C0DE9DC0013F
S1135120DF9D900D1124FC01E858FB4F5F01668D53
S1135130778D80A191A19B01AC010E94903EF50165
S113514022A133A144A155A10E94A741F6012689B9
S11351503789408D518D0E94903E4B015C019B012B
S1135160AC01C301B2010E946C41181664F4DE9DC7
S1135170F001DF9DF00D1124E858FB4F868A978AD1
S1135180A08EB18E0BC0DE9DF001DF9DF00D1124C9
S1135190E858FB4F468A578A608E718E6801809169
S11351A074048C1392CF20907404F6E32F9EC001F4
S11351B011249C0128583B4F7901C1E0C20DC4322F
S11351C009F4C0E030907604D6E358C0CC2ED12C3C
S11351D0DC9D8001DD9D100D112408581B4FF70143
S11351E046885788608C718CF80186889788A08CD3
S11351F0B18CA5019401C301B2010E94693F8823C7
S113520024F5F701668D778D80A191A19B01AC01F6
S11352100E94903EF70122A133A144A155A10E940E
S1135220A741A30192010E94903E2B013C019B01E6
S1135230AC01C501B4010E946C41181634F4F801A4
S1135240468A578A608E718E2C2EDC9DF001DD9D7E
S1135250F00D1124E858FB4F228D338D448D558D6C
S113526066897789808D918D0E94693F811101C083
S11352702C2ECF5FC43209F4C0E07801C311A6CF4D
S113528020927404DF91CF911F910F91FF90EF90C2
S1135290DF90CF90BF90AF909F908F907F906F9052
S11352A05F904F903F902F90089510927704109242
S11352B0760481E0809375041092740408958CE15F
S11352C0E8E5F4E0DF011D928A95E9F7EECF089551
S11352D08091770490917604981769F091E0980F83
S11352E0943209F490E020917404821302C09093E4
S11352F074049093770408958091760426E3829F42
S1135300C001112488589B4F08958091770490918F
S11353107604981739F026E3829FC0011124885837
S11353209B4F089580E090E00895E0917704EF5F4B
S1135330E43209F4E0E0809176048E1759F086E3B4
S1135340E89FF0011124E858FB4F66897789808D26
S1135350918D089560E070E0CB01089581E0209183
S1135360770490917504291380E00895AF92BF9259
S1135370CF92DF92EF92FF920F931F93CF93DF931D
S1135380EC011EA5AFA4E8A809A9898980FF1AC069
S11353906091260C70E080E090E00E940B402AE0CF
S11353A037ED43E25CE30E94A7419B01AC01612F0E
S11353B07A2D8E2D902F0E94A741162FA72EE82E0E
S11353C0092F2FC082FD19C06091250C70E080E088
S11353D090E00E940B402AE037ED43E25CE30E9438
S11353E0A7419B01AC01612F7A2D8E2D902F0E9435
S11353F0A741162FA72EE82E092FBAA4CBA4DCA40C
S1135400FDA42B2D3C2D4D2D5F2D612F7A2D8E2D3E
S1135410902F0E946C41181624F41B2DAC2CED2CFB
S11354200F2D20E030E040E85FE3612F7A2D8E2DD0
S1135430902F0E946C4118161CF4DA2DCE2D04C056
S113544010E0D0E0C0E80FE3612F7D2F8C2F902F68
S1135450DF91CF911F910F91FF90EF90DF90CF904C
S1135460BF90AF9008955F926F927F928F929F92B8
S1135470AF92BF92CF92DF92EF92FF920F931F935E
S1135480CF93DF9310917704509076040F2EF9E9AF
S11354909F2EF02D0F2EF6E78F2EF02D0F2EF6E90E
S11354A07F2EF02D0F2EFEE76F2EF02D0F2EF6E33C
S11354B0CF2EF02D73C0C12FD0E0CC9EC001CD9E65
S11354C0900D112488589B4F51DF062FF72EE82E9C
S11354D0D92E262F372F482F592F692D782D872D18
S11354E0962D0E94693F8823CCF4CC9EC001CD9EAA
S11354F0900D11249C0128583B4F5901292D382D1A
S1135500472D562D692D782D872D962D0E94A74164
S1135510F501628F738F848F958F18C0CC9EC00164
S1135520CD9E900D11249C0128583B4F5901202FEA
S11355303F2D4E2D5D2D602F7F2D8E2D9D2D0E9494
S1135540A741F501628F738F848F958FCC9EF001F4
S1135550CD9EF00D1124E858FB4F86A097A0A0A47F
S1135560B1A4A5019401628D738D848D958D0E94E3
S11355706C4118165CF4CC9EF001CD9EF00D112404
S1135580E858FB4F828E938EA48EB58E1F5F143223
S113559009F410E0902E8F2C7E2C6D2C15118BCFDE
S11355A0892D982DA72DB62D8093700490937104A6
S11355B0A0937204B0937304DF91CF911F910F9164
S11355C0FF90EF90DF90CF90BF90AF909F908F901F
S11355D07F906F905F9008952F923F924F925F92C9
S11355E06F927F928F929F92AF92BF92CF92DF92EF
S11355F0EF92FF920F931F93CF93DF93CDB7DEB754
S1135600C654D1090FB6F894DEBF0FBECDBF2396A2
S11356107FAF6EAF239720907604A22CB12C26E3A3
S11356202A9DA0012B9D500D1124BA0168587B4F6F
S113563021967FAF6EAF2197FB0111922A95E9F76E
S11356402396EEADFFAD23972485FB01218B239692
S1135650EEADFFAD23974481558166817781219614
S1135660EEADFFAD219742AB53AB64AB75AB239664
S1135670EEADFFAD239740855185628573852196F4
S1135680EEADFFAD2197428B538B648B758B21FF5D
S11356900AC02CE0E3E4FCE0DE011D9601900D92CB
S11356A02A95E1F765C22CE0E8E5F4E0DE011D96F9
S11356B001900D922A95E1F75BC2E9ADFAAD6191D3
S11356C0719181919191FAAFE9AFEBADFCAD21916C
S11356D0319141915191FCAFEBAF2DAB3EAB4FAB50
S11356E058AF0E94A7410E947741F40161937193DE
S11356F0819391934F01F60101911191219131917F
S11357006F01601B710B820B930B8B019C013AF4AC
S1135710002711279801061B170B280B390BF101E1
S113572001931193219331931F01F701408051801C
S113573062807380401651066206730610F42801D5
S11357403901F70140825182628273820E940B40C8
S11357502DA93EA94FA958AD0E94703FEDADFEADF5
S11357606193719381939193FEAFEDAF20E030E0AC
S1135770A9010E94693F88234CF489A91CDC27965F
S1135780EEADFFAD27979081892B8083F9A9FF5F48
S1135790F9ABF33009F091CF86E38A9DF0018B9D3C
S11357A0F00D1124E858FB4F84859585A685B785AF
S11357B0892B8A2B8B2B09F4D7C1CE0149968ED322
S11357C026E32A9D80012B9D100D112408581B4FA0
S11357D0F80162A373A384A395A3BE01675E7F4F00
S11357E088EE9EE0E2D3F801668F778F80A391A3C1
S11357F0BE01675E7F4F8CED9EE0D7D3F80162A7B0
S113580073A784A795A7118910FF0DC026E32A9DCD
S1135810F0012B9DF00D1124E858FB4F66A777A7E4
S113582080AB91AB22C02396EEADFFAD23972081D0
S113583031814281538186E38A9DF0018B9DF00D75
S11358401124E858FB4F26A737A740AB51AB13FFF1
S11358500CC07F0162A173A184A195A10E94A741FC
S1135860F70166A777A780AB91AB909176048091FE
S11358707704981711F011FF11C086E38A9DF00197
S11358808B9DF00D1124E858FB4F168A178A108E51
S1135890118E16A217A210A611A6D6C004E614E013
S11358A01E01F5E22F0E311C410119AA1AAA1BAAE6
S11358B01CAAF801C190D190E190F1908F01259636
S11358C0EEADFFAD25974190519061907190259672
S11358D0FFAFEEAF2597A3019201C701B6010E9465
S11358E0A7419B01AC0169A97AA98BA99CA90E9433
S11358F08F3E69AB7AAB8BAB9CABA7019601C3011E
S1135900B2010E948F3EF10161937193819391934F
S11359101F0125962EAD3FAD25972815390549F66B
S11359202FEE3FEF4FE75FE369A97AA98BA99CA902
S11359300E946C4118166CF486E38A9DF0018B9DDD
S1135940F00D1124E858FB4F16A217A210A611A6B9
S11359507BC02FEE3FEF4FE75FEB69A97AA98BA9D4
S11359609CA90E94693F88238CF486E38A9DF001F8
S11359708B9DF00D1124E858FB4F89E996E7A6E9C1
S1135980BEE786A397A3A0A7B1A75EC0CE01859664
S1135990A5D2BE016B5D7F4F88EE9EE006D36B01FE
S11359A07C0129A93AA94BA95CA960E070E080E8D0
S11359B09FE30E948F3E20E030E040E05FE30E94DE
S11359C0A7410E9434422B013C012091050F3091E4
S11359D0060F4091070F5091080FC701B6010E94AE
S11359E0A741A30192010E94A7416B017C01A3017D
S11359F0920160E070E080E89FE30E948F3E9B018B
S1135A00AC01C701B6010E94703FE62EF72E082FA5
S1135A10192F20E030E0A9010E94693F882324F473
S1135A20E12CF12C00E010E086E38A9DF0018B9DCF
S1135A30F00D1124E858FB4F4E2D5F2D602F712F70
S1135A4046A357A360A771A786E38A9DF0018B9DA7
S1135A50F00D1124E858FB4F818981FD87C0219600
S1135A608EAD9FAD219782DC6B017C014090700468
S1135A70509071046090720470907304A3019201B9
S1135A800E946C411816A4F486E38A9D80018B9DC4
S1135A90100D112408581B4FA3019201C301B20138
S1135AA00E94A741F801628F738F848F958F13C072
S1135AB086E38A9D80018B9D100D112408581B4F8D
S1135AC0A7019601C701B6010E94A741F801628FA0
S1135AD0738F848F958F86E38A9DF0018B9DF00DE3
S1135AE01124E858FB4F46A057A060A471A4A30159
S1135AF09201628D738D848D958D0E946C41181670
S1135B0064F486E38A9DF0018B9DF00D1124E8581E
S1135B10FB4F428E538E648E758EC0927004D09269
S1135B207104E0927204F09273048CE0FE017996A1
S1135B30A4E6B4E001900D928A95E1F78CE0FE01B1
S1135B403196A8E5B4E001900D928A95E1F7809131
S1135B507504809376048F5F843209F480E0809327
S1135B6075043DDA81E039C080E037C081E035C09A
S1135B7089AF9AAF20ED3EE03CAF2BAFAE014F5F53
S1135B805F4F4A016E015DE0C50ED11C66E3269E9F
S1135B90C0011124FC01E858FB4F1F019E01275E40
S1135BA03F4F25963FAF2EAF25973EAF2DAF10E068
S1135BB026E32A9DC0012B9D900D112488589B4FEC
S1135BC07C013CE0E30EF11CAC01405F5F4F279683
S1135BD05FAF4EAF279719AB70CDCA5BDF4F0FB6DF
S1135BE0F894DEBF0FBECDBFDF91CF911F910F910F
S1135BF0FF90EF90DF90CF90BF90AF909F908F90E9
S1135C007F906F905F904F903F902F900895E3E4C2
S1135C10FCE0A8E5B4E08FE49CE0419151916191EE
S1135C2071914D935D936D937D93E817F907A9F7EF
S1135C3008959091760480917704981718F08D5DFB
S1135C40891B08958150891B08950E942C1C809102
S1135C50770480937404C3C908954F925F926F923E
S1135C607F928F929F92AF92BF92CF92DF92EF92E8
S1135C70FF920F931F93CF93DF93DC01FB01C0814D
S1135C80D0E0FC01EC0FFD1F90819D3229F4EF015F
S1135C902296918101E00BC09B3229F02196CA0F14
S1135CA0DB1F00E004C0EF012296918100E080E058
S1135CB020E010E0412C512C320131E0FE019053E0
S1135CC09A3010F52F5F2930D8F481111150530107
S1135CD04201880C991CAA1CBB1C880C991CAA1C88
S1135CE0BB1C840C951CA61CB71C880C991CAA1CF4
